{
  "contractName": "ProjectWithBonds",
  "abi": [
    {
      "constant": true,
      "inputs": [],
      "name": "name",
      "outputs": [
        {
          "name": "",
          "type": "string"
        }
      ],
      "payable": false,
      "stateMutability": "view",
      "type": "function"
    },
    {
      "constant": false,
      "inputs": [
        {
          "name": "_validatorAddress",
          "type": "address"
        }
      ],
      "name": "setValidator",
      "outputs": [],
      "payable": false,
      "stateMutability": "nonpayable",
      "type": "function"
    },
    {
      "constant": false,
      "inputs": [
        {
          "name": "_token",
          "type": "address"
        }
      ],
      "name": "setToken",
      "outputs": [],
      "payable": false,
      "stateMutability": "nonpayable",
      "type": "function"
    },
    {
      "constant": false,
      "inputs": [
        {
          "name": "_beneficiaryAddress",
          "type": "address"
        }
      ],
      "name": "setBeneficiary",
      "outputs": [],
      "payable": false,
      "stateMutability": "nonpayable",
      "type": "function"
    },
    {
      "constant": true,
      "inputs": [],
      "name": "CLAIMS_REGISTRY",
      "outputs": [
        {
          "name": "",
          "type": "address"
        }
      ],
      "payable": false,
      "stateMutability": "view",
      "type": "function"
    },
    {
      "constant": true,
      "inputs": [],
      "name": "getToken",
      "outputs": [
        {
          "name": "",
          "type": "address"
        }
      ],
      "payable": false,
      "stateMutability": "view",
      "type": "function"
    },
    {
      "constant": false,
      "inputs": [
        {
          "name": "_from",
          "type": "address"
        },
        {
          "name": "_amount",
          "type": "uint256"
        }
      ],
      "name": "notify",
      "outputs": [],
      "payable": false,
      "stateMutability": "nonpayable",
      "type": "function"
    },
    {
      "constant": true,
      "inputs": [],
      "name": "total",
      "outputs": [
        {
          "name": "",
          "type": "uint256"
        }
      ],
      "payable": false,
      "stateMutability": "view",
      "type": "function"
    },
    {
      "constant": true,
      "inputs": [],
      "name": "validatorAddress",
      "outputs": [
        {
          "name": "",
          "type": "address"
        }
      ],
      "payable": false,
      "stateMutability": "view",
      "type": "function"
    },
    {
      "constant": false,
      "inputs": [
        {
          "name": "impactRegistryAddress",
          "type": "address"
        }
      ],
      "name": "setImpactRegistry",
      "outputs": [],
      "payable": false,
      "stateMutability": "nonpayable",
      "type": "function"
    },
    {
      "constant": true,
      "inputs": [
        {
          "name": "",
          "type": "bytes32"
        }
      ],
      "name": "isClaimValidated",
      "outputs": [
        {
          "name": "",
          "type": "bool"
        }
      ],
      "payable": false,
      "stateMutability": "view",
      "type": "function"
    },
    {
      "constant": true,
      "inputs": [],
      "name": "upfrontPaymentPercentage",
      "outputs": [
        {
          "name": "",
          "type": "uint8"
        }
      ],
      "payable": false,
      "stateMutability": "view",
      "type": "function"
    },
    {
      "constant": false,
      "inputs": [
        {
          "name": "account",
          "type": "address"
        }
      ],
      "name": "payBack",
      "outputs": [],
      "payable": false,
      "stateMutability": "nonpayable",
      "type": "function"
    },
    {
      "constant": true,
      "inputs": [],
      "name": "liability",
      "outputs": [
        {
          "name": "",
          "type": "uint256"
        }
      ],
      "payable": false,
      "stateMutability": "view",
      "type": "function"
    },
    {
      "constant": false,
      "inputs": [],
      "name": "renounceOwnership",
      "outputs": [],
      "payable": false,
      "stateMutability": "nonpayable",
      "type": "function"
    },
    {
      "constant": true,
      "inputs": [],
      "name": "owner",
      "outputs": [
        {
          "name": "",
          "type": "address"
        }
      ],
      "payable": false,
      "stateMutability": "view",
      "type": "function"
    },
    {
      "constant": false,
      "inputs": [
        {
          "name": "escapeAddress",
          "type": "address"
        }
      ],
      "name": "escape",
      "outputs": [],
      "payable": false,
      "stateMutability": "nonpayable",
      "type": "function"
    },
    {
      "constant": false,
      "inputs": [
        {
          "name": "_amount",
          "type": "uint256"
        }
      ],
      "name": "donateFromWallet",
      "outputs": [],
      "payable": false,
      "stateMutability": "nonpayable",
      "type": "function"
    },
    {
      "constant": true,
      "inputs": [],
      "name": "couponNominalPrice",
      "outputs": [
        {
          "name": "",
          "type": "uint256"
        }
      ],
      "payable": false,
      "stateMutability": "view",
      "type": "function"
    },
    {
      "constant": false,
      "inputs": [
        {
          "name": "_alternativeToken",
          "type": "address"
        },
        {
          "name": "_targetAddress",
          "type": "address"
        },
        {
          "name": "_value",
          "type": "uint256"
        }
      ],
      "name": "reclaimAlternativeTokens",
      "outputs": [],
      "payable": false,
      "stateMutability": "nonpayable",
      "type": "function"
    },
    {
      "constant": false,
      "inputs": [
        {
          "name": "_value",
          "type": "uint256"
        }
      ],
      "name": "fund",
      "outputs": [],
      "payable": false,
      "stateMutability": "nonpayable",
      "type": "function"
    },
    {
      "constant": true,
      "inputs": [],
      "name": "IMPACT_REGISTRY_ADDRESS",
      "outputs": [
        {
          "name": "",
          "type": "address"
        }
      ],
      "payable": false,
      "stateMutability": "view",
      "type": "function"
    },
    {
      "constant": true,
      "inputs": [],
      "name": "beneficiaryAddress",
      "outputs": [
        {
          "name": "",
          "type": "address"
        }
      ],
      "payable": false,
      "stateMutability": "view",
      "type": "function"
    },
    {
      "constant": false,
      "inputs": [
        {
          "name": "_newOwner",
          "type": "address"
        }
      ],
      "name": "transferOwnership",
      "outputs": [],
      "payable": false,
      "stateMutability": "nonpayable",
      "type": "function"
    },
    {
      "constant": true,
      "inputs": [
        {
          "name": "donor",
          "type": "address"
        }
      ],
      "name": "getBalance",
      "outputs": [
        {
          "name": "",
          "type": "uint256"
        }
      ],
      "payable": false,
      "stateMutability": "view",
      "type": "function"
    },
    {
      "constant": true,
      "inputs": [],
      "name": "validatedLiability",
      "outputs": [
        {
          "name": "",
          "type": "uint256"
        }
      ],
      "payable": false,
      "stateMutability": "view",
      "type": "function"
    },
    {
      "constant": true,
      "inputs": [],
      "name": "couponInterestRate",
      "outputs": [
        {
          "name": "",
          "type": "uint256"
        }
      ],
      "payable": false,
      "stateMutability": "view",
      "type": "function"
    },
    {
      "constant": false,
      "inputs": [
        {
          "name": "_claimsRegistry",
          "type": "address"
        }
      ],
      "name": "setClaimsRegistry",
      "outputs": [],
      "payable": false,
      "stateMutability": "nonpayable",
      "type": "function"
    },
    {
      "inputs": [
        {
          "name": "_name",
          "type": "string"
        },
        {
          "name": "_upfrontPaymentPercentage",
          "type": "uint8"
        },
        {
          "name": "_couponNominalPrice",
          "type": "uint256"
        },
        {
          "name": "_couponInterestRate",
          "type": "uint256"
        }
      ],
      "payable": false,
      "stateMutability": "nonpayable",
      "type": "constructor"
    },
    {
      "anonymous": false,
      "inputs": [
        {
          "indexed": true,
          "name": "to",
          "type": "address"
        },
        {
          "indexed": false,
          "name": "value",
          "type": "uint256"
        }
      ],
      "name": "CouponIssuedEvent",
      "type": "event"
    },
    {
      "anonymous": false,
      "inputs": [
        {
          "indexed": true,
          "name": "from",
          "type": "address"
        },
        {
          "indexed": false,
          "name": "value",
          "type": "uint256"
        }
      ],
      "name": "CouponRedeemEvent",
      "type": "event"
    },
    {
      "anonymous": false,
      "inputs": [
        {
          "indexed": false,
          "name": "claimId",
          "type": "bytes32"
        },
        {
          "indexed": false,
          "name": "value",
          "type": "uint256"
        }
      ],
      "name": "OutcomeEvent",
      "type": "event"
    },
    {
      "anonymous": false,
      "inputs": [
        {
          "indexed": true,
          "name": "from",
          "type": "address"
        },
        {
          "indexed": false,
          "name": "value",
          "type": "uint256"
        }
      ],
      "name": "DonationEvent",
      "type": "event"
    },
    {
      "anonymous": false,
      "inputs": [
        {
          "indexed": true,
          "name": "previousOwner",
          "type": "address"
        }
      ],
      "name": "OwnershipRenounced",
      "type": "event"
    },
    {
      "anonymous": false,
      "inputs": [
        {
          "indexed": true,
          "name": "previousOwner",
          "type": "address"
        },
        {
          "indexed": true,
          "name": "newOwner",
          "type": "address"
        }
      ],
      "name": "OwnershipTransferred",
      "type": "event"
    },
    {
      "constant": false,
      "inputs": [
        {
          "name": "_amount",
          "type": "uint256"
        }
      ],
      "name": "investFromWallet",
      "outputs": [],
      "payable": false,
      "stateMutability": "nonpayable",
      "type": "function"
    },
    {
      "constant": false,
      "inputs": [
        {
          "name": "_claimId",
          "type": "bytes32"
        },
        {
          "name": "_value",
          "type": "uint256"
        }
      ],
      "name": "validateOutcome",
      "outputs": [],
      "payable": false,
      "stateMutability": "nonpayable",
      "type": "function"
    },
    {
      "constant": false,
      "inputs": [
        {
          "name": "_amount",
          "type": "uint256"
        }
      ],
      "name": "redeemCoupons",
      "outputs": [],
      "payable": false,
      "stateMutability": "nonpayable",
      "type": "function"
    },
    {
      "constant": true,
      "inputs": [
        {
          "name": "_value",
          "type": "uint256"
        }
      ],
      "name": "getPriceWithInterests",
      "outputs": [
        {
          "name": "",
          "type": "uint256"
        }
      ],
      "payable": false,
      "stateMutability": "view",
      "type": "function"
    },
    {
      "constant": true,
      "inputs": [],
      "name": "getCoupon",
      "outputs": [
        {
          "name": "",
          "type": "address"
        }
      ],
      "payable": false,
      "stateMutability": "view",
      "type": "function"
    },
    {
      "constant": true,
      "inputs": [],
      "name": "getLiability",
      "outputs": [
        {
          "name": "",
          "type": "uint256"
        }
      ],
      "payable": false,
      "stateMutability": "view",
      "type": "function"
    },
    {
      "constant": true,
      "inputs": [],
      "name": "getValidatedLiability",
      "outputs": [
        {
          "name": "",
          "type": "uint256"
        }
      ],
      "payable": false,
      "stateMutability": "view",
      "type": "function"
    }
  ],
  "bytecode": "0x60806040523480156200001157600080fd5b506040516200483338038062004833833981018060405281019080805182019291906020018051906020019092919080519060200190929190805190602001909291905050508383336000806101000a81548173ffffffffffffffffffffffffffffffffffffffff021916908373ffffffffffffffffffffffffffffffffffffffff16021790555060008160ff1610158015620000b1575060648160ff16105b1515620000bd57600080fd5b8160019080519060200190620000d592919062000180565b5080600560146101000a81548160ff021916908360ff160217905550505081600b8190555080600a81905550600b546200010e62000207565b80828152602001915050604051809103906000f08015801562000135573d6000803e3d6000fd5b50600e60006101000a81548173ffffffffffffffffffffffffffffffffffffffff021916908373ffffffffffffffffffffffffffffffffffffffff1602179055505050505062000240565b828054600181600116156101000203166002900490600052602060002090601f016020900481019282601f10620001c357805160ff1916838001178555620001f4565b82800160010185558215620001f4579182015b82811115620001f3578251825591602001919060010190620001d6565b5b50905062000203919062000218565b5090565b604051611d828062002ab183390190565b6200023d91905b80821115620002395760008160009055506001016200021f565b5090565b90565b61286180620002506000396000f3006080604052600436106101b7576000357c0100000000000000000000000000000000000000000000000000000000900463ffffffff16806306fdde03146101bc57806307634cbe1461024c5780630f610c06146102a35780631327d3d8146102ce578063144fa6d7146103115780631c31f71014610354578063203899e11461039757806321df0da7146103ee57806325fda176146104455780632a9f0fb2146104925780632ddbd13a146104d35780633fe4676e146104fe5780635102ad69146105555780635588306a1461059857806360500064146105e15780636293fd1e14610612578063705727b514610655578063715018a6146106805780638da5cb5b146106975780639cb6ed7e146106ee578063a94385a014610731578063abaabcf01461075e578063bc565f1814610799578063bfbfb439146107c4578063c5bd908914610831578063ca1d209d1461085e578063d81ad1011461088b578063d9c4870e146108e2578063f2fde38b14610939578063f3c15f491461097c578063f747b744146109a7578063f8b2cb4f146109d4578063f9f0466614610a2b578063fadfdb6614610a56578063fb36105f14610a81575b600080fd5b3480156101c857600080fd5b506101d1610ac4565b6040518080602001828103825283818151815260200191508051906020019080838360005b838110156102115780820151818401526020810190506101f6565b50505050905090810190601f16801561023e5780820380516001836020036101000a031916815260200191505b509250505060405180910390f35b34801561025857600080fd5b50610261610b62565b604051808273ffffffffffffffffffffffffffffffffffffffff1673ffffffffffffffffffffffffffffffffffffffff16815260200191505060405180910390f35b3480156102af57600080fd5b506102b8610b8c565b6040518082815260200191505060405180910390f35b3480156102da57600080fd5b5061030f600480360381019080803573ffffffffffffffffffffffffffffffffffffffff169060200190929190505050610b96565b005b34801561031d57600080fd5b50610352600480360381019080803573ffffffffffffffffffffffffffffffffffffffff169060200190929190505050610c35565b005b34801561036057600080fd5b50610395600480360381019080803573ffffffffffffffffffffffffffffffffffffffff169060200190929190505050610cd4565b005b3480156103a357600080fd5b506103ac610d73565b604051808273ffffffffffffffffffffffffffffffffffffffff1673ffffffffffffffffffffffffffffffffffffffff16815260200191505060405180910390f35b3480156103fa57600080fd5b50610403610d99565b604051808273ffffffffffffffffffffffffffffffffffffffff1673ffffffffffffffffffffffffffffffffffffffff16815260200191505060405180910390f35b34801561045157600080fd5b50610490600480360381019080803573ffffffffffffffffffffffffffffffffffffffff16906020019092919080359060200190929190505050610dc3565b005b34801561049e57600080fd5b506104bd60048036038101908080359060200190929190505050610e61565b6040518082815260200191505060405180910390f35b3480156104df57600080fd5b506104e8610ea5565b6040518082815260200191505060405180910390f35b34801561050a57600080fd5b50610513610eab565b604051808273ffffffffffffffffffffffffffffffffffffffff1673ffffffffffffffffffffffffffffffffffffffff16815260200191505060405180910390f35b34801561056157600080fd5b50610596600480360381019080803573ffffffffffffffffffffffffffffffffffffffff169060200190929190505050610ed1565b005b3480156105a457600080fd5b506105c76004803603810190808035600019169060200190929190505050610f70565b604051808215151515815260200191505060405180910390f35b3480156105ed57600080fd5b506105f6610f90565b604051808260ff1660ff16815260200191505060405180910390f35b34801561061e57600080fd5b50610653600480360381019080803573ffffffffffffffffffffffffffffffffffffffff169060200190929190505050610fa3565b005b34801561066157600080fd5b5061066a6111ef565b6040518082815260200191505060405180910390f35b34801561068c57600080fd5b506106956111f5565b005b3480156106a357600080fd5b506106ac6112f7565b604051808273ffffffffffffffffffffffffffffffffffffffff1673ffffffffffffffffffffffffffffffffffffffff16815260200191505060405180910390f35b3480156106fa57600080fd5b5061072f600480360381019080803573ffffffffffffffffffffffffffffffffffffffff16906020019092919050505061131c565b005b34801561073d57600080fd5b5061075c6004803603810190808035906020019092919050505061146a565b005b34801561076a57600080fd5b50610797600480360381019080803560001916906020019092919080359060200190929190505050611591565b005b3480156107a557600080fd5b506107ae61189c565b6040518082815260200191505060405180910390f35b3480156107d057600080fd5b5061082f600480360381019080803573ffffffffffffffffffffffffffffffffffffffff169060200190929190803573ffffffffffffffffffffffffffffffffffffffff169060200190929190803590602001909291905050506118a2565b005b34801561083d57600080fd5b5061085c60048036038101908080359060200190929190505050611be3565b005b34801561086a57600080fd5b5061088960048036038101908080359060200190929190505050611e60565b005b34801561089757600080fd5b506108a0611ed9565b604051808273ffffffffffffffffffffffffffffffffffffffff1673ffffffffffffffffffffffffffffffffffffffff16815260200191505060405180910390f35b3480156108ee57600080fd5b506108f7611eff565b604051808273ffffffffffffffffffffffffffffffffffffffff1673ffffffffffffffffffffffffffffffffffffffff16815260200191505060405180910390f35b34801561094557600080fd5b5061097a600480360381019080803573ffffffffffffffffffffffffffffffffffffffff169060200190929190505050611f25565b005b34801561098857600080fd5b50610991611f8c565b6040518082815260200191505060405180910390f35b3480156109b357600080fd5b506109d260048036038101908080359060200190929190505050611f96565b005b3480156109e057600080fd5b50610a15600480360381019080803573ffffffffffffffffffffffffffffffffffffffff169060200190929190505050612247565b6040518082815260200191505060405180910390f35b348015610a3757600080fd5b50610a40612348565b6040518082815260200191505060405180910390f35b348015610a6257600080fd5b50610a6b61234e565b6040518082815260200191505060405180910390f35b348015610a8d57600080fd5b50610ac2600480360381019080803573ffffffffffffffffffffffffffffffffffffffff169060200190929190505050612354565b005b60018054600181600116156101000203166002900480601f016020809104026020016040519081016040528092919081815260200182805460018160011615610100020316600290048015610b5a5780601f10610b2f57610100808354040283529160200191610b5a565b820191906000526020600020905b815481529060010190602001808311610b3d57829003601f168201915b505050505081565b6000600e60009054906101000a900473ffffffffffffffffffffffffffffffffffffffff16905090565b6000600d54905090565b6000809054906101000a900473ffffffffffffffffffffffffffffffffffffffff1673ffffffffffffffffffffffffffffffffffffffff163373ffffffffffffffffffffffffffffffffffffffff16141515610bf157600080fd5b80600260006101000a81548173ffffffffffffffffffffffffffffffffffffffff021916908373ffffffffffffffffffffffffffffffffffffffff16021790555050565b6000809054906101000a900473ffffffffffffffffffffffffffffffffffffffff1673ffffffffffffffffffffffffffffffffffffffff163373ffffffffffffffffffffffffffffffffffffffff16141515610c9057600080fd5b80600960006101000a81548173ffffffffffffffffffffffffffffffffffffffff021916908373ffffffffffffffffffffffffffffffffffffffff16021790555050565b6000809054906101000a900473ffffffffffffffffffffffffffffffffffffffff1673ffffffffffffffffffffffffffffffffffffffff163373ffffffffffffffffffffffffffffffffffffffff16141515610d2f57600080fd5b80600360006101000a81548173ffffffffffffffffffffffffffffffffffffffff021916908373ffffffffffffffffffffffffffffffffffffffff16021790555050565b600560009054906101000a900473ffffffffffffffffffffffffffffffffffffffff1681565b6000600960009054906101000a900473ffffffffffffffffffffffffffffffffffffffff16905090565b6000809054906101000a900473ffffffffffffffffffffffffffffffffffffffff1673ffffffffffffffffffffffffffffffffffffffff163373ffffffffffffffffffffffffffffffffffffffff16141515610e1e57600080fd5b60008273ffffffffffffffffffffffffffffffffffffffff1614151515610e4457600080fd5b600081111515610e5357600080fd5b610e5d82826123f3565b5050565b6000610e9e610e8f612710610e81600a548661266190919063ffffffff16565b61269990919063ffffffff16565b836126af90919063ffffffff16565b9050919050565b60085481565b600260009054906101000a900473ffffffffffffffffffffffffffffffffffffffff1681565b6000809054906101000a900473ffffffffffffffffffffffffffffffffffffffff1673ffffffffffffffffffffffffffffffffffffffff163373ffffffffffffffffffffffffffffffffffffffff16141515610f2c57600080fd5b80600460006101000a81548173ffffffffffffffffffffffffffffffffffffffff021916908373ffffffffffffffffffffffffffffffffffffffff16021790555050565b60076020528060005260406000206000915054906101000a900460ff1681565b600560149054906101000a900460ff1681565b60008060009054906101000a900473ffffffffffffffffffffffffffffffffffffffff1673ffffffffffffffffffffffffffffffffffffffff163373ffffffffffffffffffffffffffffffffffffffff1614151561100057600080fd5b61100982612247565b905060008111156111eb5761101c610d99565b73ffffffffffffffffffffffffffffffffffffffff1663a9059cbb83836040518363ffffffff167c0100000000000000000000000000000000000000000000000000000000028152600401808373ffffffffffffffffffffffffffffffffffffffff1673ffffffffffffffffffffffffffffffffffffffff16815260200182815260200192505050602060405180830381600087803b1580156110be57600080fd5b505af11580156110d2573d6000803e3d6000fd5b505050506040513d60208110156110e857600080fd5b81019080805190602001909291905050505061110f816008546126cb90919063ffffffff16565b600881905550600460009054906101000a900473ffffffffffffffffffffffffffffffffffffffff1673ffffffffffffffffffffffffffffffffffffffff16636293fd1e836040518263ffffffff167c0100000000000000000000000000000000000000000000000000000000028152600401808273ffffffffffffffffffffffffffffffffffffffff1673ffffffffffffffffffffffffffffffffffffffff168152602001915050600060405180830381600087803b1580156111d257600080fd5b505af11580156111e6573d6000803e3d6000fd5b505050505b5050565b600c5481565b6000809054906101000a900473ffffffffffffffffffffffffffffffffffffffff1673ffffffffffffffffffffffffffffffffffffffff163373ffffffffffffffffffffffffffffffffffffffff1614151561125057600080fd5b6000809054906101000a900473ffffffffffffffffffffffffffffffffffffffff1673ffffffffffffffffffffffffffffffffffffffff167ff8df31144d9c2f0f6b59d69b8b98abd5459d07f2742c4df920b25aae33c6482060405160405180910390a260008060006101000a81548173ffffffffffffffffffffffffffffffffffffffff021916908373ffffffffffffffffffffffffffffffffffffffff160217905550565b6000809054906101000a900473ffffffffffffffffffffffffffffffffffffffff1681565b6000809054906101000a900473ffffffffffffffffffffffffffffffffffffffff1673ffffffffffffffffffffffffffffffffffffffff163373ffffffffffffffffffffffffffffffffffffffff1614151561137757600080fd5b61137f610d99565b73ffffffffffffffffffffffffffffffffffffffff1663a9059cbb826008546040518363ffffffff167c0100000000000000000000000000000000000000000000000000000000028152600401808373ffffffffffffffffffffffffffffffffffffffff1673ffffffffffffffffffffffffffffffffffffffff16815260200182815260200192505050602060405180830381600087803b15801561142357600080fd5b505af1158015611437573d6000803e3d6000fd5b505050506040513d602081101561144d57600080fd5b810190808051906020019092919050505050600060088190555050565b611472610d99565b73ffffffffffffffffffffffffffffffffffffffff166323b872dd3330846040518463ffffffff167c0100000000000000000000000000000000000000000000000000000000028152600401808473ffffffffffffffffffffffffffffffffffffffff1673ffffffffffffffffffffffffffffffffffffffff1681526020018373ffffffffffffffffffffffffffffffffffffffff1673ffffffffffffffffffffffffffffffffffffffff1681526020018281526020019350505050602060405180830381600087803b15801561154857600080fd5b505af115801561155c573d6000803e3d6000fd5b505050506040513d602081101561157257600080fd5b81019080805190602001909291905050505061158e33826123f3565b50565b600080600260009054906101000a900473ffffffffffffffffffffffffffffffffffffffff1673ffffffffffffffffffffffffffffffffffffffff163373ffffffffffffffffffffffffffffffffffffffff161415156115f057600080fd5b600854831115151561160157600080fd5b611618600d54600c546126cb90919063ffffffff16565b91508183111561175f5761163582846126cb90919063ffffffff16565b905061163f610d99565b73ffffffffffffffffffffffffffffffffffffffff1663a9059cbb600360009054906101000a900473ffffffffffffffffffffffffffffffffffffffff16836040518363ffffffff167c0100000000000000000000000000000000000000000000000000000000028152600401808373ffffffffffffffffffffffffffffffffffffffff1673ffffffffffffffffffffffffffffffffffffffff16815260200182815260200192505050602060405180830381600087803b15801561170357600080fd5b505af1158015611717573d6000803e3d6000fd5b505050506040513d602081101561172d57600080fd5b81019080805190602001909291905050505061175482600d546126af90919063ffffffff16565b600d8190555061177b565b61177483600d546126af90919063ffffffff16565b600d819055505b611790836008546126cb90919063ffffffff16565b600881905550600460009054906101000a900473ffffffffffffffffffffffffffffffffffffffff1673ffffffffffffffffffffffffffffffffffffffff166356ffeee485856040518363ffffffff167c010000000000000000000000000000000000000000000000000000000002815260040180836000191660001916815260200182815260200192505050600060405180830381600087803b15801561183757600080fd5b505af115801561184b573d6000803e3d6000fd5b505050507fe838531c29460bbe6ed403e0118d4d31b3e5f5a254b51af85e57893acc9d050c84846040518083600019166000191681526020018281526020019250505060405180910390a150505050565b600b5481565b6000809054906101000a900473ffffffffffffffffffffffffffffffffffffffff1673ffffffffffffffffffffffffffffffffffffffff163373ffffffffffffffffffffffffffffffffffffffff161415156118fd57600080fd5b60008373ffffffffffffffffffffffffffffffffffffffff161415151561198c576040517f08c379a00000000000000000000000000000000000000000000000000000000081526004018080602001828103825260168152602001807f556e646566696e656420455243323020746f6b656e730000000000000000000081525060200191505060405180910390fd5b808373ffffffffffffffffffffffffffffffffffffffff166370a08231306040518263ffffffff167c0100000000000000000000000000000000000000000000000000000000028152600401808273ffffffffffffffffffffffffffffffffffffffff1673ffffffffffffffffffffffffffffffffffffffff168152602001915050602060405180830381600087803b158015611a2857600080fd5b505af1158015611a3c573d6000803e3d6000fd5b505050506040513d6020811015611a5257600080fd5b810190808051906020019092919050505010151515611aff576040517f08c379a000000000000000000000000000000000000000000000000000000000815260040180806020018281038252602c8152602001807f496e73756666696369656e742066756e6473206465706f7369746564206f6e2081526020017f74686520636f6e7472616374000000000000000000000000000000000000000081525060400191505060405180910390fd5b8273ffffffffffffffffffffffffffffffffffffffff1663a9059cbb83836040518363ffffffff167c0100000000000000000000000000000000000000000000000000000000028152600401808373ffffffffffffffffffffffffffffffffffffffff1673ffffffffffffffffffffffffffffffffffffffff16815260200182815260200192505050602060405180830381600087803b158015611ba257600080fd5b505af1158015611bb6573d6000803e3d6000fd5b505050506040513d6020811015611bcc57600080fd5b810190808051906020019092919050505050505050565b6000611c02611bfd600b548461266190919063ffffffff16565b610e61565b905080600d5410151515611c1557600080fd5b600e60009054906101000a900473ffffffffffffffffffffffffffffffffffffffff1673ffffffffffffffffffffffffffffffffffffffff16639dc29fac33846040518363ffffffff167c0100000000000000000000000000000000000000000000000000000000028152600401808373ffffffffffffffffffffffffffffffffffffffff1673ffffffffffffffffffffffffffffffffffffffff16815260200182815260200192505050600060405180830381600087803b158015611cda57600080fd5b505af1158015611cee573d6000803e3d6000fd5b50505050611cfa610d99565b73ffffffffffffffffffffffffffffffffffffffff1663a9059cbb33836040518363ffffffff167c0100000000000000000000000000000000000000000000000000000000028152600401808373ffffffffffffffffffffffffffffffffffffffff1673ffffffffffffffffffffffffffffffffffffffff16815260200182815260200192505050602060405180830381600087803b158015611d9c57600080fd5b505af1158015611db0573d6000803e3d6000fd5b505050506040513d6020811015611dc657600080fd5b810190808051906020019092919050505050611ded81600c546126cb90919063ffffffff16565b600c81905550611e0881600d546126cb90919063ffffffff16565b600d819055503373ffffffffffffffffffffffffffffffffffffffff167f0f7120f7dce45c07e188220c5ae14d3cc122e2eb24ab313dcf162e6a13ced5e5836040518082815260200191505060405180910390a25050565b6000809054906101000a900473ffffffffffffffffffffffffffffffffffffffff1673ffffffffffffffffffffffffffffffffffffffff163373ffffffffffffffffffffffffffffffffffffffff16141515611ebb57600080fd5b611ed0816008546126af90919063ffffffff16565b60088190555050565b600460009054906101000a900473ffffffffffffffffffffffffffffffffffffffff1681565b600360009054906101000a900473ffffffffffffffffffffffffffffffffffffffff1681565b6000809054906101000a900473ffffffffffffffffffffffffffffffffffffffff1673ffffffffffffffffffffffffffffffffffffffff163373ffffffffffffffffffffffffffffffffffffffff16141515611f8057600080fd5b611f89816126e4565b50565b6000600c54905090565b6000611fa0610d99565b73ffffffffffffffffffffffffffffffffffffffff166323b872dd33600360009054906101000a900473ffffffffffffffffffffffffffffffffffffffff16856040518463ffffffff167c0100000000000000000000000000000000000000000000000000000000028152600401808473ffffffffffffffffffffffffffffffffffffffff1673ffffffffffffffffffffffffffffffffffffffff1681526020018373ffffffffffffffffffffffffffffffffffffffff1673ffffffffffffffffffffffffffffffffffffffff1681526020018281526020019350505050602060405180830381600087803b15801561209857600080fd5b505af11580156120ac573d6000803e3d6000fd5b505050506040513d60208110156120c257600080fd5b810190808051906020019092919050505015156120de57600080fd5b6120f3600b548361269990919063ffffffff16565b9050600e60009054906101000a900473ffffffffffffffffffffffffffffffffffffffff1673ffffffffffffffffffffffffffffffffffffffff166340c10f1933836040518363ffffffff167c0100000000000000000000000000000000000000000000000000000000028152600401808373ffffffffffffffffffffffffffffffffffffffff1673ffffffffffffffffffffffffffffffffffffffff16815260200182815260200192505050600060405180830381600087803b1580156121ba57600080fd5b505af11580156121ce573d6000803e3d6000fd5b505050506121ef6121de83610e61565b600c546126af90919063ffffffff16565b600c819055503373ffffffffffffffffffffffffffffffffffffffff167f1b3f8104a161cbc0dd2620d8a13f2583997e245ef64e1df46b9fc9d6fda12c9d826040518082815260200191505060405180910390a25050565b6000600460009054906101000a900473ffffffffffffffffffffffffffffffffffffffff1673ffffffffffffffffffffffffffffffffffffffff1663f8b2cb4f836040518263ffffffff167c0100000000000000000000000000000000000000000000000000000000028152600401808273ffffffffffffffffffffffffffffffffffffffff1673ffffffffffffffffffffffffffffffffffffffff168152602001915050602060405180830381600087803b15801561230657600080fd5b505af115801561231a573d6000803e3d6000fd5b505050506040513d602081101561233057600080fd5b81019080805190602001909291905050509050919050565b600d5481565b600a5481565b6000809054906101000a900473ffffffffffffffffffffffffffffffffffffffff1673ffffffffffffffffffffffffffffffffffffffff163373ffffffffffffffffffffffffffffffffffffffff161415156123af57600080fd5b80600560006101000a81548173ffffffffffffffffffffffffffffffffffffffff021916908373ffffffffffffffffffffffffffffffffffffffff16021790555050565b6000806123ff836127de565b91509150600082111561251557612414610d99565b73ffffffffffffffffffffffffffffffffffffffff1663a9059cbb600360009054906101000a900473ffffffffffffffffffffffffffffffffffffffff16846040518363ffffffff167c0100000000000000000000000000000000000000000000000000000000028152600401808373ffffffffffffffffffffffffffffffffffffffff1673ffffffffffffffffffffffffffffffffffffffff16815260200182815260200192505050602060405180830381600087803b1580156124d857600080fd5b505af11580156124ec573d6000803e3d6000fd5b505050506040513d602081101561250257600080fd5b8101908080519060200190929190505050505b61252a816008546126af90919063ffffffff16565b600881905550600460009054906101000a900473ffffffffffffffffffffffffffffffffffffffff1673ffffffffffffffffffffffffffffffffffffffff16633c49dde485836040518363ffffffff167c0100000000000000000000000000000000000000000000000000000000028152600401808373ffffffffffffffffffffffffffffffffffffffff1673ffffffffffffffffffffffffffffffffffffffff16815260200182815260200192505050600060405180830381600087803b1580156125f557600080fd5b505af1158015612609573d6000803e3d6000fd5b505050508373ffffffffffffffffffffffffffffffffffffffff167f8b7fe5be5699654fd637d2250cb0d47e88205730710745e78e9d8bcaf8aad8f1846040518082815260200191505060405180910390a250505050565b6000808314156126745760009050612693565b818302905081838281151561268557fe5b0414151561268f57fe5b8090505b92915050565b600081838115156126a657fe5b04905092915050565b600081830190508281101515156126c257fe5b80905092915050565b60008282111515156126d957fe5b818303905092915050565b600073ffffffffffffffffffffffffffffffffffffffff168173ffffffffffffffffffffffffffffffffffffffff161415151561272057600080fd5b8073ffffffffffffffffffffffffffffffffffffffff166000809054906101000a900473ffffffffffffffffffffffffffffffffffffffff1673ffffffffffffffffffffffffffffffffffffffff167f8be0079c531659141344cd1fd0a4f28419497f9722a3daafe3b4186f6b6457e060405160405180910390a3806000806101000a81548173ffffffffffffffffffffffffffffffffffffffff021916908373ffffffffffffffffffffffffffffffffffffffff16021790555050565b600080612819606461280b600560149054906101000a900460ff1660ff168661266190919063ffffffff16565b61269990919063ffffffff16565b915061282e82846126cb90919063ffffffff16565b90509150915600a165627a7a7230582019d1b0c356938d8b58c68ac41ea197ead8f4316dd66f79e167a91e0f40b65547002960806040526040805190810160405280600c81526020017f416c69636520436f75706f6e000000000000000000000000000000000000000081525060049080519060200190620000519291906200018a565b506002600560006101000a81548160ff021916908360ff1602179055506040805190810160405280600381526020017f414c43000000000000000000000000000000000000000000000000000000000081525060069080519060200190620000bb9291906200018a565b506040805190810160405280600781526020017f414c4320312e300000000000000000000000000000000000000000000000000081525060079080519060200190620001099291906200018a565b503480156200011757600080fd5b5060405160208062001d828339810180604052810190808051906020019092919050505033600360006101000a81548173ffffffffffffffffffffffffffffffffffffffff021916908373ffffffffffffffffffffffffffffffffffffffff160217905550806008819055505062000239565b828054600181600116156101000203166002900490600052602060002090601f016020900481019282601f10620001cd57805160ff1916838001178555620001fe565b82800160010185558215620001fe579182015b82811115620001fd578251825591602001919060010190620001e0565b5b5090506200020d919062000211565b5090565b6200023691905b808211156200023257600081600090555060010162000218565b5090565b90565b611b3980620002496000396000f3006080604052600436106100fc576000357c0100000000000000000000000000000000000000000000000000000000900463ffffffff16806306fdde0314610101578063095ea7b31461019157806318160ddd146101f657806323b872dd14610221578063313ce567146102a657806340c10f19146102d757806354fd4d501461032457806366188463146103b457806370a0823114610419578063715018a6146104705780638da5cb5b146104875780639131fde2146104de57806395d89b41146105095780639dc29fac14610599578063a9059cbb146105e6578063d73dd6231461064b578063dd62ed3e146106b0578063f2fde38b14610727575b600080fd5b34801561010d57600080fd5b5061011661076a565b6040518080602001828103825283818151815260200191508051906020019080838360005b8381101561015657808201518184015260208101905061013b565b50505050905090810190601f1680156101835780820380516001836020036101000a031916815260200191505b509250505060405180910390f35b34801561019d57600080fd5b506101dc600480360381019080803573ffffffffffffffffffffffffffffffffffffffff16906020019092919080359060200190929190505050610808565b604051808215151515815260200191505060405180910390f35b34801561020257600080fd5b5061020b6108fa565b6040518082815260200191505060405180910390f35b34801561022d57600080fd5b5061028c600480360381019080803573ffffffffffffffffffffffffffffffffffffffff169060200190929190803573ffffffffffffffffffffffffffffffffffffffff16906020019092919080359060200190929190505050610904565b604051808215151515815260200191505060405180910390f35b3480156102b257600080fd5b506102bb610cbf565b604051808260ff1660ff16815260200191505060405180910390f35b3480156102e357600080fd5b50610322600480360381019080803573ffffffffffffffffffffffffffffffffffffffff16906020019092919080359060200190929190505050610cd2565b005b34801561033057600080fd5b50610339610e2e565b6040518080602001828103825283818151815260200191508051906020019080838360005b8381101561037957808201518184015260208101905061035e565b50505050905090810190601f1680156103a65780820380516001836020036101000a031916815260200191505b509250505060405180910390f35b3480156103c057600080fd5b506103ff600480360381019080803573ffffffffffffffffffffffffffffffffffffffff16906020019092919080359060200190929190505050610ecc565b604051808215151515815260200191505060405180910390f35b34801561042557600080fd5b5061045a600480360381019080803573ffffffffffffffffffffffffffffffffffffffff16906020019092919050505061115e565b6040518082815260200191505060405180910390f35b34801561047c57600080fd5b506104856111a6565b005b34801561049357600080fd5b5061049c6112ab565b604051808273ffffffffffffffffffffffffffffffffffffffff1673ffffffffffffffffffffffffffffffffffffffff16815260200191505060405180910390f35b3480156104ea57600080fd5b506104f36112d1565b6040518082815260200191505060405180910390f35b34801561051557600080fd5b5061051e6112d7565b6040518080602001828103825283818151815260200191508051906020019080838360005b8381101561055e578082015181840152602081019050610543565b50505050905090810190601f16801561058b5780820380516001836020036101000a031916815260200191505b509250505060405180910390f35b3480156105a557600080fd5b506105e4600480360381019080803573ffffffffffffffffffffffffffffffffffffffff16906020019092919080359060200190929190505050611375565b005b3480156105f257600080fd5b50610631600480360381019080803573ffffffffffffffffffffffffffffffffffffffff169060200190929190803590602001909291905050506114d1565b604051808215151515815260200191505060405180910390f35b34801561065757600080fd5b50610696600480360381019080803573ffffffffffffffffffffffffffffffffffffffff169060200190929190803590602001909291905050506116f1565b604051808215151515815260200191505060405180910390f35b3480156106bc57600080fd5b50610711600480360381019080803573ffffffffffffffffffffffffffffffffffffffff169060200190929190803573ffffffffffffffffffffffffffffffffffffffff1690602001909291905050506118ed565b6040518082815260200191505060405180910390f35b34801561073357600080fd5b50610768600480360381019080803573ffffffffffffffffffffffffffffffffffffffff169060200190929190505050611974565b005b60048054600181600116156101000203166002900480601f0160208091040260200160405190810160405280929190818152602001828054600181600116156101000203166002900480156108005780601f106107d557610100808354040283529160200191610800565b820191906000526020600020905b8154815290600101906020018083116107e357829003601f168201915b505050505081565b600081600260003373ffffffffffffffffffffffffffffffffffffffff1673ffffffffffffffffffffffffffffffffffffffff16815260200190815260200160002060008573ffffffffffffffffffffffffffffffffffffffff1673ffffffffffffffffffffffffffffffffffffffff168152602001908152602001600020819055508273ffffffffffffffffffffffffffffffffffffffff163373ffffffffffffffffffffffffffffffffffffffff167f8c5be1e5ebec7d5bd14f71427d1e84f3dd0314c0f7b2291e5b200ac8c7c3b925846040518082815260200191505060405180910390a36001905092915050565b6000600154905090565b60008060008573ffffffffffffffffffffffffffffffffffffffff1673ffffffffffffffffffffffffffffffffffffffff16815260200190815260200160002054821115151561095357600080fd5b600260008573ffffffffffffffffffffffffffffffffffffffff1673ffffffffffffffffffffffffffffffffffffffff16815260200190815260200160002060003373ffffffffffffffffffffffffffffffffffffffff1673ffffffffffffffffffffffffffffffffffffffff1681526020019081526020016000205482111515156109de57600080fd5b600073ffffffffffffffffffffffffffffffffffffffff168373ffffffffffffffffffffffffffffffffffffffff1614151515610a1a57600080fd5b610a6b826000808773ffffffffffffffffffffffffffffffffffffffff1673ffffffffffffffffffffffffffffffffffffffff168152602001908152602001600020546119dc90919063ffffffff16565b6000808673ffffffffffffffffffffffffffffffffffffffff1673ffffffffffffffffffffffffffffffffffffffff16815260200190815260200160002081905550610afe826000808673ffffffffffffffffffffffffffffffffffffffff1673ffffffffffffffffffffffffffffffffffffffff168152602001908152602001600020546119f590919063ffffffff16565b6000808573ffffffffffffffffffffffffffffffffffffffff1673ffffffffffffffffffffffffffffffffffffffff16815260200190815260200160002081905550610bcf82600260008773ffffffffffffffffffffffffffffffffffffffff1673ffffffffffffffffffffffffffffffffffffffff16815260200190815260200160002060003373ffffffffffffffffffffffffffffffffffffffff1673ffffffffffffffffffffffffffffffffffffffff168152602001908152602001600020546119dc90919063ffffffff16565b600260008673ffffffffffffffffffffffffffffffffffffffff1673ffffffffffffffffffffffffffffffffffffffff16815260200190815260200160002060003373ffffffffffffffffffffffffffffffffffffffff1673ffffffffffffffffffffffffffffffffffffffff168152602001908152602001600020819055508273ffffffffffffffffffffffffffffffffffffffff168473ffffffffffffffffffffffffffffffffffffffff167fddf252ad1be2c89b69c2b068fc378daa952ba7f163c4a11628f55a4df523b3ef846040518082815260200191505060405180910390a3600190509392505050565b600560009054906101000a900460ff1681565b600360009054906101000a900473ffffffffffffffffffffffffffffffffffffffff1673ffffffffffffffffffffffffffffffffffffffff163373ffffffffffffffffffffffffffffffffffffffff16141515610d2e57600080fd5b610d43816001546119f590919063ffffffff16565b600181905550610d9a816000808573ffffffffffffffffffffffffffffffffffffffff1673ffffffffffffffffffffffffffffffffffffffff168152602001908152602001600020546119f590919063ffffffff16565b6000808473ffffffffffffffffffffffffffffffffffffffff1673ffffffffffffffffffffffffffffffffffffffff168152602001908152602001600020819055508173ffffffffffffffffffffffffffffffffffffffff167f3fffaa5804a26fcec0d70b1d0fb0a2d0031df3a5f9c8af2127c2f4360e97b463826040518082815260200191505060405180910390a25050565b60078054600181600116156101000203166002900480601f016020809104026020016040519081016040528092919081815260200182805460018160011615610100020316600290048015610ec45780601f10610e9957610100808354040283529160200191610ec4565b820191906000526020600020905b815481529060010190602001808311610ea757829003601f168201915b505050505081565b600080600260003373ffffffffffffffffffffffffffffffffffffffff1673ffffffffffffffffffffffffffffffffffffffff16815260200190815260200160002060008573ffffffffffffffffffffffffffffffffffffffff1673ffffffffffffffffffffffffffffffffffffffff1681526020019081526020016000205490508083101515610fde576000600260003373ffffffffffffffffffffffffffffffffffffffff1673ffffffffffffffffffffffffffffffffffffffff16815260200190815260200160002060008673ffffffffffffffffffffffffffffffffffffffff1673ffffffffffffffffffffffffffffffffffffffff16815260200190815260200160002081905550611072565b610ff183826119dc90919063ffffffff16565b600260003373ffffffffffffffffffffffffffffffffffffffff1673ffffffffffffffffffffffffffffffffffffffff16815260200190815260200160002060008673ffffffffffffffffffffffffffffffffffffffff1673ffffffffffffffffffffffffffffffffffffffff168152602001908152602001600020819055505b8373ffffffffffffffffffffffffffffffffffffffff163373ffffffffffffffffffffffffffffffffffffffff167f8c5be1e5ebec7d5bd14f71427d1e84f3dd0314c0f7b2291e5b200ac8c7c3b925600260003373ffffffffffffffffffffffffffffffffffffffff1673ffffffffffffffffffffffffffffffffffffffff16815260200190815260200160002060008873ffffffffffffffffffffffffffffffffffffffff1673ffffffffffffffffffffffffffffffffffffffff168152602001908152602001600020546040518082815260200191505060405180910390a3600191505092915050565b60008060008373ffffffffffffffffffffffffffffffffffffffff1673ffffffffffffffffffffffffffffffffffffffff168152602001908152602001600020549050919050565b600360009054906101000a900473ffffffffffffffffffffffffffffffffffffffff1673ffffffffffffffffffffffffffffffffffffffff163373ffffffffffffffffffffffffffffffffffffffff1614151561120257600080fd5b600360009054906101000a900473ffffffffffffffffffffffffffffffffffffffff1673ffffffffffffffffffffffffffffffffffffffff167ff8df31144d9c2f0f6b59d69b8b98abd5459d07f2742c4df920b25aae33c6482060405160405180910390a26000600360006101000a81548173ffffffffffffffffffffffffffffffffffffffff021916908373ffffffffffffffffffffffffffffffffffffffff160217905550565b600360009054906101000a900473ffffffffffffffffffffffffffffffffffffffff1681565b60085481565b60068054600181600116156101000203166002900480601f01602080910402602001604051908101604052809291908181526020018280546001816001161561010002031660029004801561136d5780601f106113425761010080835404028352916020019161136d565b820191906000526020600020905b81548152906001019060200180831161135057829003601f168201915b505050505081565b600360009054906101000a900473ffffffffffffffffffffffffffffffffffffffff1673ffffffffffffffffffffffffffffffffffffffff163373ffffffffffffffffffffffffffffffffffffffff161415156113d157600080fd5b6113e6816001546119dc90919063ffffffff16565b60018190555061143d816000808573ffffffffffffffffffffffffffffffffffffffff1673ffffffffffffffffffffffffffffffffffffffff168152602001908152602001600020546119dc90919063ffffffff16565b6000808473ffffffffffffffffffffffffffffffffffffffff1673ffffffffffffffffffffffffffffffffffffffff168152602001908152602001600020819055508173ffffffffffffffffffffffffffffffffffffffff167f512586160ebd4dc6945ba9ec5d21a1f723f26f3c7aa36cdffb6818d4e7b88030826040518082815260200191505060405180910390a25050565b60008060003373ffffffffffffffffffffffffffffffffffffffff1673ffffffffffffffffffffffffffffffffffffffff16815260200190815260200160002054821115151561152057600080fd5b600073ffffffffffffffffffffffffffffffffffffffff168373ffffffffffffffffffffffffffffffffffffffff161415151561155c57600080fd5b6115ad826000803373ffffffffffffffffffffffffffffffffffffffff1673ffffffffffffffffffffffffffffffffffffffff168152602001908152602001600020546119dc90919063ffffffff16565b6000803373ffffffffffffffffffffffffffffffffffffffff1673ffffffffffffffffffffffffffffffffffffffff16815260200190815260200160002081905550611640826000808673ffffffffffffffffffffffffffffffffffffffff1673ffffffffffffffffffffffffffffffffffffffff168152602001908152602001600020546119f590919063ffffffff16565b6000808573ffffffffffffffffffffffffffffffffffffffff1673ffffffffffffffffffffffffffffffffffffffff168152602001908152602001600020819055508273ffffffffffffffffffffffffffffffffffffffff163373ffffffffffffffffffffffffffffffffffffffff167fddf252ad1be2c89b69c2b068fc378daa952ba7f163c4a11628f55a4df523b3ef846040518082815260200191505060405180910390a36001905092915050565b600061178282600260003373ffffffffffffffffffffffffffffffffffffffff1673ffffffffffffffffffffffffffffffffffffffff16815260200190815260200160002060008673ffffffffffffffffffffffffffffffffffffffff1673ffffffffffffffffffffffffffffffffffffffff168152602001908152602001600020546119f590919063ffffffff16565b600260003373ffffffffffffffffffffffffffffffffffffffff1673ffffffffffffffffffffffffffffffffffffffff16815260200190815260200160002060008573ffffffffffffffffffffffffffffffffffffffff1673ffffffffffffffffffffffffffffffffffffffff168152602001908152602001600020819055508273ffffffffffffffffffffffffffffffffffffffff163373ffffffffffffffffffffffffffffffffffffffff167f8c5be1e5ebec7d5bd14f71427d1e84f3dd0314c0f7b2291e5b200ac8c7c3b925600260003373ffffffffffffffffffffffffffffffffffffffff1673ffffffffffffffffffffffffffffffffffffffff16815260200190815260200160002060008773ffffffffffffffffffffffffffffffffffffffff1673ffffffffffffffffffffffffffffffffffffffff168152602001908152602001600020546040518082815260200191505060405180910390a36001905092915050565b6000600260008473ffffffffffffffffffffffffffffffffffffffff1673ffffffffffffffffffffffffffffffffffffffff16815260200190815260200160002060008373ffffffffffffffffffffffffffffffffffffffff1673ffffffffffffffffffffffffffffffffffffffff16815260200190815260200160002054905092915050565b600360009054906101000a900473ffffffffffffffffffffffffffffffffffffffff1673ffffffffffffffffffffffffffffffffffffffff163373ffffffffffffffffffffffffffffffffffffffff161415156119d057600080fd5b6119d981611a11565b50565b60008282111515156119ea57fe5b818303905092915050565b60008183019050828110151515611a0857fe5b80905092915050565b600073ffffffffffffffffffffffffffffffffffffffff168173ffffffffffffffffffffffffffffffffffffffff1614151515611a4d57600080fd5b8073ffffffffffffffffffffffffffffffffffffffff16600360009054906101000a900473ffffffffffffffffffffffffffffffffffffffff1673ffffffffffffffffffffffffffffffffffffffff167f8be0079c531659141344cd1fd0a4f28419497f9722a3daafe3b4186f6b6457e060405160405180910390a380600360006101000a81548173ffffffffffffffffffffffffffffffffffffffff021916908373ffffffffffffffffffffffffffffffffffffffff160217905550505600a165627a7a723058202f58b322d476badd56a5b71a1dc351883bd706f50e12d64b4c3fa3951613ae130029",
  "source": "pragma solidity ^0.4.24;\r\n\r\nimport 'openzeppelin-solidity/contracts/ownership/Ownable.sol';\r\nimport 'openzeppelin-solidity/contracts/math/SafeMath.sol';\r\nimport 'openzeppelin-solidity/contracts/token/ERC20/ERC20.sol';\r\n\r\nimport \"./Coupon.sol\";\r\nimport \"../Project.sol\";\r\n\r\ncontract ProjectWithBonds is Project {\r\n\r\n\r\n    /* This generates a public event on the blockchain that will notify clients */\r\n    event CouponIssuedEvent(address indexed to, uint value);\r\n    event CouponRedeemEvent(address indexed from, uint value);\r\n\r\n    /* In percent with double digits precision */\r\n    uint256 public couponInterestRate;\r\n    uint256 public couponNominalPrice;\r\n    uint256 public liability;\r\n    uint256 public validatedLiability;\r\n    Coupon coupon;\r\n\r\n\r\n    constructor(string _name, uint8 _upfrontPaymentPercentage, uint256 _couponNominalPrice, uint256 _couponInterestRate) public\r\n    Project(_name, _upfrontPaymentPercentage) {\r\n        couponNominalPrice = _couponNominalPrice;\r\n        couponInterestRate = _couponInterestRate;\r\n        coupon = new Coupon(couponNominalPrice);\r\n    }\r\n\r\n\r\n    function investFromWallet(uint _amount) public {\r\n        require(getToken().transferFrom(msg.sender, beneficiaryAddress, _amount));\r\n\r\n        uint256 couponCount = _amount.div(couponNominalPrice);\r\n        coupon.mint(msg.sender, couponCount);\r\n        liability = liability.add(getPriceWithInterests(_amount));\r\n\r\n        emit CouponIssuedEvent(msg.sender, couponCount);\r\n    }\r\n\r\n\r\n    function validateOutcome(bytes32 _claimId, uint _value) public {\r\n        require (msg.sender == validatorAddress);\r\n        require (_value <= total);\r\n        uint256 unvalidatedLiability = liability.sub(validatedLiability);\r\n\r\n        if (_value > unvalidatedLiability) {\r\n          uint256 surplus = _value.sub(unvalidatedLiability);\r\n          getToken().transfer(beneficiaryAddress, surplus);\r\n          validatedLiability = validatedLiability.add(unvalidatedLiability);\r\n        } else {\r\n          validatedLiability = validatedLiability.add(_value);\r\n        }\r\n\r\n        total = total.sub(_value);\r\n\r\n        ImpactRegistry(IMPACT_REGISTRY_ADDRESS).registerOutcome(_claimId, _value);\r\n\r\n        emit OutcomeEvent(_claimId, _value);\r\n    }\r\n\r\n\r\n    function redeemCoupons(uint256 _amount) public {\r\n        uint256 redeemedValue = getPriceWithInterests(_amount.mul(couponNominalPrice));\r\n        require(validatedLiability >= redeemedValue);\r\n\r\n        coupon.burn(msg.sender, _amount);\r\n        getToken().transfer(msg.sender, redeemedValue);\r\n\r\n        liability = liability.sub(redeemedValue);\r\n        validatedLiability = validatedLiability.sub(redeemedValue);\r\n\r\n        emit CouponRedeemEvent(msg.sender, _amount);\r\n    }\r\n\r\n    function getPriceWithInterests(uint256 _value) public view returns(uint256) {\r\n        return _value.add(_value.mul(couponInterestRate).div(10000));\r\n    }\r\n\r\n\r\n    function getCoupon() public view returns(Coupon) {\r\n        return coupon;\r\n    }\r\n\r\n\r\n    function getLiability() public view returns(uint256) {\r\n        return liability;\r\n    }\r\n\r\n\r\n    function getValidatedLiability() public view returns(uint256) {\r\n        return validatedLiability;\r\n    }\r\n}\r\n",
  "sourcePath": "C:\\Users\\tobog\\Documents\\GitHub\\charity\\contracts\\alice\\bonds\\ProjectWithBonds.sol",
  "compiler": {
    "name": "solc",
    "version": "0.4.26+commit.4563c3fc.Emscripten.clang"
  },
  "schemaVersion": "3.0.23",
  "updatedAt": "2020-04-09T01:27:51.259Z",
  "devdoc": {
    "methods": {
      "renounceOwnership()": {
        "details": "Allows the current owner to relinquish control of the contract."
      },
      "transferOwnership(address)": {
        "details": "Allows the current owner to transfer control of the contract to a newOwner.",
        "params": {
          "_newOwner": "The address to transfer ownership to."
        }
      }
    }
  },
  "userdoc": {
    "methods": {
      "reclaimAlternativeTokens(address,address,uint256)": {
        "notice": "Currently we don't fully support automatic processing of multiple crypto donation\r but we can handle various tokens and convert them to our own stable coin on case by case basis\r"
      },
      "renounceOwnership()": {
        "notice": "Renouncing to ownership will leave the contract without an owner. It will not be possible to call the functions with the `onlyOwner` modifier anymore."
      }
    }
  }
}