{
  "contractName": "ClaimsRegistry",
  "abi": [
    {
      "constant": true,
      "inputs": [
        {
          "name": "",
          "type": "address"
        },
        {
          "name": "",
          "type": "address"
        },
        {
          "name": "",
          "type": "bytes32"
        }
      ],
      "name": "registry",
      "outputs": [
        {
          "name": "",
          "type": "bytes32"
        }
      ],
      "payable": false,
      "stateMutability": "view",
      "type": "function"
    },
    {
      "anonymous": false,
      "inputs": [
        {
          "indexed": true,
          "name": "issuer",
          "type": "address"
        },
        {
          "indexed": true,
          "name": "subject",
          "type": "address"
        },
        {
          "indexed": true,
          "name": "key",
          "type": "bytes32"
        },
        {
          "indexed": false,
          "name": "value",
          "type": "bytes32"
        },
        {
          "indexed": false,
          "name": "updatedAt",
          "type": "uint256"
        }
      ],
      "name": "ClaimSet",
      "type": "event"
    },
    {
      "anonymous": false,
      "inputs": [
        {
          "indexed": false,
          "name": "approver",
          "type": "address"
        },
        {
          "indexed": true,
          "name": "issuer",
          "type": "address"
        },
        {
          "indexed": true,
          "name": "subject",
          "type": "address"
        },
        {
          "indexed": true,
          "name": "key",
          "type": "bytes32"
        },
        {
          "indexed": false,
          "name": "value",
          "type": "bytes32"
        },
        {
          "indexed": false,
          "name": "approvedAt",
          "type": "uint256"
        }
      ],
      "name": "ClaimApproved",
      "type": "event"
    },
    {
      "anonymous": false,
      "inputs": [
        {
          "indexed": true,
          "name": "issuer",
          "type": "address"
        },
        {
          "indexed": true,
          "name": "subject",
          "type": "address"
        },
        {
          "indexed": true,
          "name": "key",
          "type": "bytes32"
        },
        {
          "indexed": false,
          "name": "removedAt",
          "type": "uint256"
        }
      ],
      "name": "ClaimRemoved",
      "type": "event"
    },
    {
      "constant": false,
      "inputs": [
        {
          "name": "subject",
          "type": "address"
        },
        {
          "name": "key",
          "type": "bytes32"
        },
        {
          "name": "value",
          "type": "bytes32"
        }
      ],
      "name": "setClaim",
      "outputs": [],
      "payable": false,
      "stateMutability": "nonpayable",
      "type": "function"
    },
    {
      "constant": false,
      "inputs": [
        {
          "name": "key",
          "type": "bytes32"
        },
        {
          "name": "value",
          "type": "bytes32"
        }
      ],
      "name": "setSelfClaim",
      "outputs": [],
      "payable": false,
      "stateMutability": "nonpayable",
      "type": "function"
    },
    {
      "constant": true,
      "inputs": [
        {
          "name": "issuer",
          "type": "address"
        },
        {
          "name": "subject",
          "type": "address"
        },
        {
          "name": "key",
          "type": "bytes32"
        }
      ],
      "name": "getClaim",
      "outputs": [
        {
          "name": "",
          "type": "bytes32"
        }
      ],
      "payable": false,
      "stateMutability": "view",
      "type": "function"
    },
    {
      "constant": false,
      "inputs": [
        {
          "name": "subject",
          "type": "address"
        },
        {
          "name": "key",
          "type": "bytes32"
        }
      ],
      "name": "removeClaim",
      "outputs": [],
      "payable": false,
      "stateMutability": "nonpayable",
      "type": "function"
    },
    {
      "constant": false,
      "inputs": [
        {
          "name": "issuer",
          "type": "address"
        },
        {
          "name": "subject",
          "type": "address"
        },
        {
          "name": "key",
          "type": "bytes32"
        }
      ],
      "name": "approveClaim",
      "outputs": [],
      "payable": false,
      "stateMutability": "nonpayable",
      "type": "function"
    },
    {
      "constant": true,
      "inputs": [
        {
          "name": "approver",
          "type": "address"
        },
        {
          "name": "issuer",
          "type": "address"
        },
        {
          "name": "subject",
          "type": "address"
        },
        {
          "name": "key",
          "type": "bytes32"
        }
      ],
      "name": "isApproved",
      "outputs": [
        {
          "name": "",
          "type": "bool"
        }
      ],
      "payable": false,
      "stateMutability": "view",
      "type": "function"
    }
  ],
  "bytecode": "0x608060405234801561001057600080fd5b50610978806100206000396000f300608060405260043610610082576000357c0100000000000000000000000000000000000000000000000000000000900463ffffffff168062814a061461008757806324a8ae84146101305780639155b01a146101a15780639918925d146101e0578063a1c8ca7e1461023f578063e1661eff14610290578063e6d970aa1461031d575b600080fd5b34801561009357600080fd5b50610116600480360381019080803573ffffffffffffffffffffffffffffffffffffffff169060200190929190803573ffffffffffffffffffffffffffffffffffffffff169060200190929190803573ffffffffffffffffffffffffffffffffffffffff16906020019092919080356000191690602001909291905050506103aa565b604051808215151515815260200191505060405180910390f35b34801561013c57600080fd5b5061019f600480360381019080803573ffffffffffffffffffffffffffffffffffffffff169060200190929190803573ffffffffffffffffffffffffffffffffffffffff16906020019092919080356000191690602001909291905050506104e9565b005b3480156101ad57600080fd5b506101de60048036038101908080356000191690602001909291908035600019169060200190929190505050610649565b005b3480156101ec57600080fd5b5061023d600480360381019080803573ffffffffffffffffffffffffffffffffffffffff16906020019092919080356000191690602001909291908035600019169060200190929190505050610658565b005b34801561024b57600080fd5b5061028e600480360381019080803573ffffffffffffffffffffffffffffffffffffffff1690602001909291908035600019169060200190929190505050610774565b005b34801561029c57600080fd5b506102ff600480360381019080803573ffffffffffffffffffffffffffffffffffffffff169060200190929190803573ffffffffffffffffffffffffffffffffffffffff169060200190929190803560001916906020019092919050505061087a565b60405180826000191660001916815260200191505060405180910390f35b34801561032957600080fd5b5061038c600480360381019080803573ffffffffffffffffffffffffffffffffffffffff169060200190929190803573ffffffffffffffffffffffffffffffffffffffff169060200190929190803560001916906020019092919050505061091a565b60405180826000191660001916815260200191505060405180910390f35b60008060008673ffffffffffffffffffffffffffffffffffffffff1673ffffffffffffffffffffffffffffffffffffffff16815260200190815260200160002060008473ffffffffffffffffffffffffffffffffffffffff1673ffffffffffffffffffffffffffffffffffffffff1681526020019081526020016000206000836000191660001916815260200190815260200160002054600019166000808673ffffffffffffffffffffffffffffffffffffffff1673ffffffffffffffffffffffffffffffffffffffff16815260200190815260200160002060008573ffffffffffffffffffffffffffffffffffffffff1673ffffffffffffffffffffffffffffffffffffffff168152602001908152602001600020600084600019166000191681526020019081526020016000205460001916149050949350505050565b60006104f684848461087a565b9050806000803373ffffffffffffffffffffffffffffffffffffffff1673ffffffffffffffffffffffffffffffffffffffff16815260200190815260200160002060008573ffffffffffffffffffffffffffffffffffffffff1673ffffffffffffffffffffffffffffffffffffffff16815260200190815260200160002060008460001916600019168152602001908152602001600020816000191690555081600019168373ffffffffffffffffffffffffffffffffffffffff168573ffffffffffffffffffffffffffffffffffffffff167fcc1d5cc2da95ba3e4e62fd4fc753229e033b0a3c7700e8f6d084029ad74fe769338542604051808473ffffffffffffffffffffffffffffffffffffffff1673ffffffffffffffffffffffffffffffffffffffff1681526020018360001916600019168152602001828152602001935050505060405180910390a450505050565b610654338383610658565b5050565b806000803373ffffffffffffffffffffffffffffffffffffffff1673ffffffffffffffffffffffffffffffffffffffff16815260200190815260200160002060008573ffffffffffffffffffffffffffffffffffffffff1673ffffffffffffffffffffffffffffffffffffffff16815260200190815260200160002060008460001916600019168152602001908152602001600020816000191690555081600019168373ffffffffffffffffffffffffffffffffffffffff163373ffffffffffffffffffffffffffffffffffffffff167f8c9f893548e8429f9352aba6698e6f4dca2e390604f6e8c5881a7a505d94ae5084426040518083600019166000191681526020018281526020019250505060405180910390a4505050565b6000803373ffffffffffffffffffffffffffffffffffffffff1673ffffffffffffffffffffffffffffffffffffffff16815260200190815260200160002060008373ffffffffffffffffffffffffffffffffffffffff1673ffffffffffffffffffffffffffffffffffffffff168152602001908152602001600020600082600019166000191681526020019081526020016000206000905580600019168273ffffffffffffffffffffffffffffffffffffffff163373ffffffffffffffffffffffffffffffffffffffff167f7bc046ef9f2fccd4c99778d7e0fbed67ddb16e63e1a266894769de9516b8039a426040518082815260200191505060405180910390a45050565b60008060008573ffffffffffffffffffffffffffffffffffffffff1673ffffffffffffffffffffffffffffffffffffffff16815260200190815260200160002060008473ffffffffffffffffffffffffffffffffffffffff1673ffffffffffffffffffffffffffffffffffffffff168152602001908152602001600020600083600019166000191681526020019081526020016000205490509392505050565b6000602052826000526040600020602052816000526040600020602052806000526040600020600092509250505054815600a165627a7a7230582029c605f8c8b004dff38a1ee3eae04b6cd0d485d4f7d420ab35962cf5b459a3700029",
  "source": "pragma solidity ^0.4.24;\r\n\r\n/**\r\n * @title ClaimsRegistry\r\n * @dev This is based on the ERC-780 Ethereum Claims Registry (https://github.com/ethereum/EIPs/issues/780)\r\n * This implementation adds an ability to approve certain claims by an additional entity in the most minimal form.\r\n * One claim could have multiple approvals.\r\n */\r\ncontract ClaimsRegistry {\r\n\r\n    mapping(address => mapping(address => mapping(bytes32 => bytes32))) public registry;\r\n\r\n    event ClaimSet(\r\n        address indexed issuer,\r\n        address indexed subject,\r\n        bytes32 indexed key,\r\n        bytes32 value,\r\n        uint updatedAt);\r\n\r\n\r\n    event ClaimApproved(\r\n        address approver,\r\n        address indexed issuer,\r\n        address indexed subject,\r\n        bytes32 indexed key,\r\n        bytes32 value,\r\n        uint approvedAt);\r\n\r\n    event ClaimRemoved(\r\n        address indexed issuer,\r\n        address indexed subject,\r\n        bytes32 indexed key,\r\n        uint removedAt);\r\n\r\n    // create or update clams\r\n    function setClaim(address subject, bytes32 key, bytes32 value) public {\r\n        registry[msg.sender][subject][key] = value;\r\n        emit ClaimSet(msg.sender, subject, key, value, now);\r\n    }\r\n\r\n    function setSelfClaim(bytes32 key, bytes32 value) public {\r\n        setClaim(msg.sender, key, value);\r\n    }\r\n\r\n    function getClaim(address issuer, address subject, bytes32 key) public view returns(bytes32) {\r\n        return registry[issuer][subject][key];\r\n    }\r\n\r\n    function removeClaim(address subject, bytes32 key) public {\r\n        delete registry[msg.sender][subject][key];\r\n        emit ClaimRemoved(msg.sender, subject, key, now);\r\n    }\r\n\r\n    // Explicit approvals are not currently used, claims are approved implicitly\r\n    // by Project.validateOutcome function.\r\n\r\n    function approveClaim(address issuer, address subject, bytes32 key) public {\r\n        bytes32 value = getClaim(issuer, subject, key);\r\n        registry[msg.sender][subject][key] = value;\r\n        emit ClaimApproved(msg.sender, issuer, subject, key, value, now);\r\n    }\r\n\r\n    function isApproved(address approver, address issuer, address subject, bytes32 key) public view returns(bool) {\r\n        return registry[issuer][subject][key] == registry[approver][subject][key];\r\n    }\r\n}\r\n",
  "sourcePath": "C:\\Users\\tobog\\Documents\\GitHub\\charity\\contracts\\alice\\ClaimsRegistry.sol",
  "compiler": {
    "name": "solc",
    "version": "0.4.26+commit.4563c3fc.Emscripten.clang"
  },
  "schemaVersion": "3.0.23",
  "updatedAt": "2020-04-20T01:51:34.118Z",
  "devdoc": {
    "methods": {},
    "title": "ClaimsRegistry\r"
  },
  "userdoc": {
    "methods": {}
  }
}