{
  "contractName": "CuratedWithWarnings",
  "abi": [
    {
      "constant": false,
      "inputs": [
        {
          "name": "_transferId",
          "type": "uint256"
        }
      ],
      "name": "confirmTransfer",
      "outputs": [],
      "payable": false,
      "stateMutability": "nonpayable",
      "type": "function"
    },
    {
      "constant": false,
      "inputs": [
        {
          "name": "token",
          "type": "address"
        },
        {
          "name": "to",
          "type": "address"
        },
        {
          "name": "value",
          "type": "uint256"
        }
      ],
      "name": "proposeTransfer",
      "outputs": [
        {
          "name": "",
          "type": "uint256"
        }
      ],
      "payable": false,
      "stateMutability": "nonpayable",
      "type": "function"
    },
    {
      "constant": false,
      "inputs": [
        {
          "name": "_transferId",
          "type": "uint256"
        }
      ],
      "name": "resumeTransfer",
      "outputs": [],
      "payable": false,
      "stateMutability": "nonpayable",
      "type": "function"
    },
    {
      "constant": true,
      "inputs": [],
      "name": "curator",
      "outputs": [
        {
          "name": "",
          "type": "address"
        }
      ],
      "payable": false,
      "stateMutability": "view",
      "type": "function"
    },
    {
      "inputs": [
        {
          "name": "_whistleblowers",
          "type": "address[]"
        },
        {
          "name": "_curator",
          "type": "address"
        },
        {
          "name": "_proposers",
          "type": "address[]"
        },
        {
          "name": "_validators",
          "type": "address[]"
        }
      ],
      "payable": false,
      "stateMutability": "nonpayable",
      "type": "constructor"
    },
    {
      "anonymous": false,
      "inputs": [
        {
          "indexed": true,
          "name": "id",
          "type": "uint256"
        },
        {
          "indexed": true,
          "name": "token",
          "type": "address"
        },
        {
          "indexed": true,
          "name": "to",
          "type": "address"
        },
        {
          "indexed": false,
          "name": "value",
          "type": "uint256"
        }
      ],
      "name": "TransferProposed",
      "type": "event"
    },
    {
      "anonymous": false,
      "inputs": [
        {
          "indexed": true,
          "name": "id",
          "type": "uint256"
        },
        {
          "indexed": true,
          "name": "token",
          "type": "address"
        },
        {
          "indexed": true,
          "name": "to",
          "type": "address"
        },
        {
          "indexed": false,
          "name": "value",
          "type": "uint256"
        }
      ],
      "name": "TransferConfirmed",
      "type": "event"
    },
    {
      "constant": false,
      "inputs": [
        {
          "name": "_transferId",
          "type": "uint256"
        }
      ],
      "name": "blockTransfer",
      "outputs": [],
      "payable": false,
      "stateMutability": "nonpayable",
      "type": "function"
    }
  ],
  "bytecode": "0x6080604052600160035534801561001557600080fd5b50604051610b8d380380610b8d833981018060405281019080805182019291906020018051906020019092919080518201929190602001805182019291905050506000838383818160008060008451111561010e5760016000806101000a81548160ff021916908315150217905550600091505b835182101561010d57600180600086858151811015156100a557fe5b9060200190602002015173ffffffffffffffffffffffffffffffffffffffff1673ffffffffffffffffffffffffffffffffffffffff16815260200190815260200160002060006101000a81548160ff0219169083151502179055508180600101925050610089565b5b6000835111156101be576001600060016101000a81548160ff021916908315150217905550600090505b82518110156101bd57600160026000858481518110151561015557fe5b9060200190602002015173ffffffffffffffffffffffffffffffffffffffff1673ffffffffffffffffffffffffffffffffffffffff16815260200190815260200160002060006101000a81548160ff0219169083151502179055508080600101915050610138565b5b5050505082600660006101000a81548173ffffffffffffffffffffffffffffffffffffffff021916908373ffffffffffffffffffffffffffffffffffffffff160217905550505050600090505b845181101561029057600160086000878481518110151561022857fe5b9060200190602002015173ffffffffffffffffffffffffffffffffffffffff1673ffffffffffffffffffffffffffffffffffffffff16815260200190815260200160002060006101000a81548160ff021916908315150217905550808060010191505061020b565b50505050506108e9806102a46000396000f30060806040526004361061006d576000357c0100000000000000000000000000000000000000000000000000000000900463ffffffff1680632c48e7db1461007257806364a8a0a01461009f578063996d310d14610120578063c0a39fb01461014d578063e66f53b71461017a575b600080fd5b34801561007e57600080fd5b5061009d600480360381019080803590602001909291905050506101d1565b005b3480156100ab57600080fd5b5061010a600480360381019080803573ffffffffffffffffffffffffffffffffffffffff169060200190929190803573ffffffffffffffffffffffffffffffffffffffff1690602001909291908035906020019092919050505061027a565b6040518082815260200191505060405180910390f35b34801561012c57600080fd5b5061014b60048036038101908080359060200190929190505050610466565b005b34801561015957600080fd5b50610178600480360381019080803590602001909291905050506104f1565b005b34801561018657600080fd5b5061018f610626565b604051808273ffffffffffffffffffffffffffffffffffffffff1673ffffffffffffffffffffffffffffffffffffffff16815260200191505060405180910390f35b600060019054906101000a900460ff1615806102365750600260003373ffffffffffffffffffffffffffffffffffffffff1673ffffffffffffffffffffffffffffffffffffffff16815260200190815260200160002060009054906101000a900460ff165b151561024157600080fd5b6005600082815260200190815260200160002060009054906101000a900460ff1615151561026e57600080fd5b6102778161064c565b50565b6000806000809054906101000a900460ff1615806102e15750600160003373ffffffffffffffffffffffffffffffffffffffff1673ffffffffffffffffffffffffffffffffffffffff16815260200190815260200160002060009054906101000a900460ff165b15156102ec57600080fd5b600360008154809291906001019190505590506060604051908101604052808673ffffffffffffffffffffffffffffffffffffffff1681526020018573ffffffffffffffffffffffffffffffffffffffff168152602001848152506004600083815260200190815260200160002060008201518160000160006101000a81548173ffffffffffffffffffffffffffffffffffffffff021916908373ffffffffffffffffffffffffffffffffffffffff16021790555060208201518160010160006101000a81548173ffffffffffffffffffffffffffffffffffffffff021916908373ffffffffffffffffffffffffffffffffffffffff160217905550604082015181600201559050508373ffffffffffffffffffffffffffffffffffffffff168573ffffffffffffffffffffffffffffffffffffffff16827f38ad22e5704952fc5eaf855fe6a8193abeeae5963626b72a552fe2584d053e4e866040518082815260200191505060405180910390a4809150509392505050565b600660009054906101000a900473ffffffffffffffffffffffffffffffffffffffff1673ffffffffffffffffffffffffffffffffffffffff163373ffffffffffffffffffffffffffffffffffffffff161415156104c257600080fd5b60006005600083815260200190815260200160002060006101000a81548160ff02191690831515021790555050565b600660009054906101000a900473ffffffffffffffffffffffffffffffffffffffff1673ffffffffffffffffffffffffffffffffffffffff163373ffffffffffffffffffffffffffffffffffffffff1614806105c05750600860003373ffffffffffffffffffffffffffffffffffffffff1673ffffffffffffffffffffffffffffffffffffffff16815260200190815260200160002060009054906101000a900460ff1680156105bf57506007600082815260200190815260200160002060009054906101000a900460ff16155b5b15156105cb57600080fd5b60016005600083815260200190815260200160002060006101000a81548160ff02191690831515021790555060016007600083815260200190815260200160002060006101000a81548160ff02191690831515021790555050565b600660009054906101000a900473ffffffffffffffffffffffffffffffffffffffff1681565b60008060019054906101000a900460ff1615806106b25750600260003373ffffffffffffffffffffffffffffffffffffffff1673ffffffffffffffffffffffffffffffffffffffff16815260200190815260200160002060009054906101000a900460ff165b15156106bd57600080fd5b6004600083815260200190815260200160002090508060000160009054906101000a900473ffffffffffffffffffffffffffffffffffffffff1673ffffffffffffffffffffffffffffffffffffffff1663a9059cbb8260010160009054906101000a900473ffffffffffffffffffffffffffffffffffffffff1683600201546040518363ffffffff167c0100000000000000000000000000000000000000000000000000000000028152600401808373ffffffffffffffffffffffffffffffffffffffff1673ffffffffffffffffffffffffffffffffffffffff16815260200182815260200192505050602060405180830381600087803b1580156107c157600080fd5b505af11580156107d5573d6000803e3d6000fd5b505050506040513d60208110156107eb57600080fd5b8101908080519060200190929190505050151561080757600080fd5b8060010160009054906101000a900473ffffffffffffffffffffffffffffffffffffffff1673ffffffffffffffffffffffffffffffffffffffff168160000160009054906101000a900473ffffffffffffffffffffffffffffffffffffffff1673ffffffffffffffffffffffffffffffffffffffff16837fba8f27a7f85d193b2e0c15d54a1e1d5254b3c86afe31ab91987d39cff6df258c84600201546040518082815260200191505060405180910390a450505600a165627a7a72305820d62d28ba5976e78b1c89ea6e9806cf0d143eba69d3020fa0c619956f4817fb780029",
  "source": "pragma solidity ^0.4.24;\r\n\r\nimport 'openzeppelin-solidity/contracts/token/ERC20/ERC20.sol';\r\nimport './TwoPhaseTransfers.sol';\r\nimport './CuratedTransfers.sol';\r\n\r\n\r\n/**\r\n * @title CuratedWithWarnings\r\n * @dev The CuratedWithWarnings contract adds a Whistleblower role to Curated contract that may block a transfer\r\n        but is unable to resume. Blocking may happen only once per transfer.\r\n */\r\ncontract CuratedWithWarnings is CuratedTransfers {\r\n\r\n    mapping(uint => bool) wasMarked;\r\n    mapping(address => bool) whistleblowers;\r\n\r\n    constructor(address[] _whistleblowers, address _curator, address[] _proposers, address[] _validators)\r\n        CuratedTransfers(_curator, _proposers, _validators) public {\r\n\r\n        for(uint i=0; i<_whistleblowers.length; i++) {\r\n            whistleblowers[_whistleblowers[i]] = true;\r\n        }\r\n    }\r\n\r\n\r\n    function blockTransfer(uint _transferId) public {\r\n        require(msg.sender == curator || (whistleblowers[msg.sender] && !wasMarked[_transferId]));\r\n        isBlocked[_transferId] = true;\r\n        wasMarked[_transferId] = true;\r\n    }\r\n\r\n}\r\n",
  "sourcePath": "C:\\Users\\tobog\\Documents\\GitHub\\charity\\contracts\\alice\\CuratedWithWarnings.sol",
  "compiler": {
    "name": "solc",
    "version": "0.4.26+commit.4563c3fc.Emscripten.clang"
  },
  "schemaVersion": "3.0.23",
  "updatedAt": "2020-04-20T01:51:34.125Z",
  "devdoc": {
    "methods": {},
    "title": "CuratedWithWarnings\r"
  },
  "userdoc": {
    "methods": {}
  }
}