{
  "contractName": "CuratedTransfers",
  "abi": [
    {
      "constant": false,
      "inputs": [
        {
          "name": "token",
          "type": "address"
        },
        {
          "name": "to",
          "type": "address"
        },
        {
          "name": "value",
          "type": "uint256"
        }
      ],
      "name": "proposeTransfer",
      "outputs": [
        {
          "name": "",
          "type": "uint256"
        }
      ],
      "payable": false,
      "stateMutability": "nonpayable",
      "type": "function"
    },
    {
      "constant": true,
      "inputs": [],
      "name": "curator",
      "outputs": [
        {
          "name": "",
          "type": "address"
        }
      ],
      "payable": false,
      "stateMutability": "view",
      "type": "function"
    },
    {
      "inputs": [
        {
          "name": "_curator",
          "type": "address"
        },
        {
          "name": "_proposers",
          "type": "address[]"
        },
        {
          "name": "_validators",
          "type": "address[]"
        }
      ],
      "payable": false,
      "stateMutability": "nonpayable",
      "type": "constructor"
    },
    {
      "anonymous": false,
      "inputs": [
        {
          "indexed": true,
          "name": "id",
          "type": "uint256"
        },
        {
          "indexed": true,
          "name": "token",
          "type": "address"
        },
        {
          "indexed": true,
          "name": "to",
          "type": "address"
        },
        {
          "indexed": false,
          "name": "value",
          "type": "uint256"
        }
      ],
      "name": "TransferProposed",
      "type": "event"
    },
    {
      "anonymous": false,
      "inputs": [
        {
          "indexed": true,
          "name": "id",
          "type": "uint256"
        },
        {
          "indexed": true,
          "name": "token",
          "type": "address"
        },
        {
          "indexed": true,
          "name": "to",
          "type": "address"
        },
        {
          "indexed": false,
          "name": "value",
          "type": "uint256"
        }
      ],
      "name": "TransferConfirmed",
      "type": "event"
    },
    {
      "constant": false,
      "inputs": [
        {
          "name": "_transferId",
          "type": "uint256"
        }
      ],
      "name": "blockTransfer",
      "outputs": [],
      "payable": false,
      "stateMutability": "nonpayable",
      "type": "function"
    },
    {
      "constant": false,
      "inputs": [
        {
          "name": "_transferId",
          "type": "uint256"
        }
      ],
      "name": "resumeTransfer",
      "outputs": [],
      "payable": false,
      "stateMutability": "nonpayable",
      "type": "function"
    },
    {
      "constant": false,
      "inputs": [
        {
          "name": "_transferId",
          "type": "uint256"
        }
      ],
      "name": "confirmTransfer",
      "outputs": [],
      "payable": false,
      "stateMutability": "nonpayable",
      "type": "function"
    }
  ],
  "bytecode": "0x6080604052600160035534801561001557600080fd5b50604051610a45380380610a4583398101806040528101908080519060200190929190805182019291906020018051820192919050505081816000806000845111156100ff5760016000806101000a81548160ff021916908315150217905550600091505b83518210156100fe576001806000868581518110151561009657fe5b9060200190602002015173ffffffffffffffffffffffffffffffffffffffff1673ffffffffffffffffffffffffffffffffffffffff16815260200190815260200160002060006101000a81548160ff021916908315150217905550818060010192505061007a565b5b6000835111156101af576001600060016101000a81548160ff021916908315150217905550600090505b82518110156101ae57600160026000858481518110151561014657fe5b9060200190602002015173ffffffffffffffffffffffffffffffffffffffff1673ffffffffffffffffffffffffffffffffffffffff16815260200190815260200160002060006101000a81548160ff0219169083151502179055508080600101915050610129565b5b5050505082600660006101000a81548173ffffffffffffffffffffffffffffffffffffffff021916908373ffffffffffffffffffffffffffffffffffffffff16021790555050505061083f806102066000396000f30060806040526004361061006d576000357c0100000000000000000000000000000000000000000000000000000000900463ffffffff1680632c48e7db1461007257806364a8a0a01461009f578063996d310d14610120578063c0a39fb01461014d578063e66f53b71461017a575b600080fd5b34801561007e57600080fd5b5061009d600480360381019080803590602001909291905050506101d1565b005b3480156100ab57600080fd5b5061010a600480360381019080803573ffffffffffffffffffffffffffffffffffffffff169060200190929190803573ffffffffffffffffffffffffffffffffffffffff1690602001909291908035906020019092919050505061027a565b6040518082815260200191505060405180910390f35b34801561012c57600080fd5b5061014b60048036038101908080359060200190929190505050610466565b005b34801561015957600080fd5b50610178600480360381019080803590602001909291905050506104f1565b005b34801561018657600080fd5b5061018f61057c565b604051808273ffffffffffffffffffffffffffffffffffffffff1673ffffffffffffffffffffffffffffffffffffffff16815260200191505060405180910390f35b600060019054906101000a900460ff1615806102365750600260003373ffffffffffffffffffffffffffffffffffffffff1673ffffffffffffffffffffffffffffffffffffffff16815260200190815260200160002060009054906101000a900460ff165b151561024157600080fd5b6005600082815260200190815260200160002060009054906101000a900460ff1615151561026e57600080fd5b610277816105a2565b50565b6000806000809054906101000a900460ff1615806102e15750600160003373ffffffffffffffffffffffffffffffffffffffff1673ffffffffffffffffffffffffffffffffffffffff16815260200190815260200160002060009054906101000a900460ff165b15156102ec57600080fd5b600360008154809291906001019190505590506060604051908101604052808673ffffffffffffffffffffffffffffffffffffffff1681526020018573ffffffffffffffffffffffffffffffffffffffff168152602001848152506004600083815260200190815260200160002060008201518160000160006101000a81548173ffffffffffffffffffffffffffffffffffffffff021916908373ffffffffffffffffffffffffffffffffffffffff16021790555060208201518160010160006101000a81548173ffffffffffffffffffffffffffffffffffffffff021916908373ffffffffffffffffffffffffffffffffffffffff160217905550604082015181600201559050508373ffffffffffffffffffffffffffffffffffffffff168573ffffffffffffffffffffffffffffffffffffffff16827f38ad22e5704952fc5eaf855fe6a8193abeeae5963626b72a552fe2584d053e4e866040518082815260200191505060405180910390a4809150509392505050565b600660009054906101000a900473ffffffffffffffffffffffffffffffffffffffff1673ffffffffffffffffffffffffffffffffffffffff163373ffffffffffffffffffffffffffffffffffffffff161415156104c257600080fd5b60006005600083815260200190815260200160002060006101000a81548160ff02191690831515021790555050565b600660009054906101000a900473ffffffffffffffffffffffffffffffffffffffff1673ffffffffffffffffffffffffffffffffffffffff163373ffffffffffffffffffffffffffffffffffffffff1614151561054d57600080fd5b60016005600083815260200190815260200160002060006101000a81548160ff02191690831515021790555050565b600660009054906101000a900473ffffffffffffffffffffffffffffffffffffffff1681565b60008060019054906101000a900460ff1615806106085750600260003373ffffffffffffffffffffffffffffffffffffffff1673ffffffffffffffffffffffffffffffffffffffff16815260200190815260200160002060009054906101000a900460ff165b151561061357600080fd5b6004600083815260200190815260200160002090508060000160009054906101000a900473ffffffffffffffffffffffffffffffffffffffff1673ffffffffffffffffffffffffffffffffffffffff1663a9059cbb8260010160009054906101000a900473ffffffffffffffffffffffffffffffffffffffff1683600201546040518363ffffffff167c0100000000000000000000000000000000000000000000000000000000028152600401808373ffffffffffffffffffffffffffffffffffffffff1673ffffffffffffffffffffffffffffffffffffffff16815260200182815260200192505050602060405180830381600087803b15801561071757600080fd5b505af115801561072b573d6000803e3d6000fd5b505050506040513d602081101561074157600080fd5b8101908080519060200190929190505050151561075d57600080fd5b8060010160009054906101000a900473ffffffffffffffffffffffffffffffffffffffff1673ffffffffffffffffffffffffffffffffffffffff168160000160009054906101000a900473ffffffffffffffffffffffffffffffffffffffff1673ffffffffffffffffffffffffffffffffffffffff16837fba8f27a7f85d193b2e0c15d54a1e1d5254b3c86afe31ab91987d39cff6df258c84600201546040518082815260200191505060405180910390a450505600a165627a7a72305820b9c7f49853163084c8cadf39c6a8d78f0865c9e09a46679bea802eaeddae28bd0029",
  "source": "pragma solidity ^0.4.24;\r\n\r\nimport 'openzeppelin-solidity/contracts/token/ERC20/ERC20.sol';\r\nimport './TwoPhaseTransfers.sol';\r\n\r\n\r\n/**\r\n * @title CuratedTransfers\r\n * @dev The CuratedTransfers contract introduces a curator role that may block and resume any pending transfer.\r\n */\r\ncontract CuratedTransfers is TwoPhaseTransfers {\r\n\r\n    mapping(uint => bool) isBlocked;\r\n    address public curator;\r\n\r\n\r\n    modifier onlyCurator() {\r\n        require(msg.sender == curator);\r\n        _;\r\n    }\r\n\r\n\r\n    constructor(address _curator, address[] _proposers, address[] _validators)\r\n    TwoPhaseTransfers(_proposers, _validators) public {\r\n        curator = _curator;\r\n    }\r\n\r\n\r\n    function blockTransfer(uint _transferId) public onlyCurator {\r\n        isBlocked[_transferId] = true;\r\n    }\r\n\r\n\r\n    function resumeTransfer(uint _transferId) public onlyCurator {\r\n        isBlocked[_transferId] = false;\r\n    }\r\n\r\n\r\n    function confirmTransfer(uint _transferId) public onlyValidator {\r\n        require(!isBlocked[_transferId]);\r\n        super.confirmTransfer(_transferId);\r\n    }\r\n\r\n}\r\n",
  "sourcePath": "C:\\Users\\tobog\\Documents\\GitHub\\charity\\contracts\\alice\\CuratedTransfers.sol",
  "compiler": {
    "name": "solc",
    "version": "0.4.26+commit.4563c3fc.Emscripten.clang"
  },
  "schemaVersion": "3.0.23",
  "updatedAt": "2020-04-20T01:51:34.122Z",
  "devdoc": {
    "methods": {},
    "title": "CuratedTransfers\r"
  },
  "userdoc": {
    "methods": {}
  }
}