{
  "contractName": "DonationWallet",
  "abi": [
    {
      "constant": false,
      "inputs": [],
      "name": "renounceOwnership",
      "outputs": [],
      "payable": false,
      "stateMutability": "nonpayable",
      "type": "function"
    },
    {
      "constant": true,
      "inputs": [],
      "name": "owner",
      "outputs": [
        {
          "name": "",
          "type": "address"
        }
      ],
      "payable": false,
      "stateMutability": "view",
      "type": "function"
    },
    {
      "constant": false,
      "inputs": [
        {
          "name": "_newOwner",
          "type": "address"
        }
      ],
      "name": "transferOwnership",
      "outputs": [],
      "payable": false,
      "stateMutability": "nonpayable",
      "type": "function"
    },
    {
      "inputs": [
        {
          "name": "_projectCatalog",
          "type": "address"
        }
      ],
      "payable": false,
      "stateMutability": "nonpayable",
      "type": "constructor"
    },
    {
      "anonymous": false,
      "inputs": [
        {
          "indexed": true,
          "name": "previousOwner",
          "type": "address"
        }
      ],
      "name": "OwnershipRenounced",
      "type": "event"
    },
    {
      "anonymous": false,
      "inputs": [
        {
          "indexed": true,
          "name": "previousOwner",
          "type": "address"
        },
        {
          "indexed": true,
          "name": "newOwner",
          "type": "address"
        }
      ],
      "name": "OwnershipTransferred",
      "type": "event"
    },
    {
      "constant": false,
      "inputs": [
        {
          "name": "_amount",
          "type": "uint256"
        },
        {
          "name": "_projectName",
          "type": "string"
        }
      ],
      "name": "donate",
      "outputs": [],
      "payable": false,
      "stateMutability": "nonpayable",
      "type": "function"
    },
    {
      "constant": false,
      "inputs": [
        {
          "name": "_token",
          "type": "address"
        },
        {
          "name": "_amount",
          "type": "uint256"
        }
      ],
      "name": "refund",
      "outputs": [],
      "payable": false,
      "stateMutability": "nonpayable",
      "type": "function"
    },
    {
      "constant": true,
      "inputs": [
        {
          "name": "_token",
          "type": "address"
        }
      ],
      "name": "balance",
      "outputs": [
        {
          "name": "",
          "type": "uint256"
        }
      ],
      "payable": false,
      "stateMutability": "view",
      "type": "function"
    }
  ],
  "bytecode": "0x608060405234801561001057600080fd5b50604051602080610bd583398101806040528101908080519060200190929190505050336000806101000a81548173ffffffffffffffffffffffffffffffffffffffff021916908373ffffffffffffffffffffffffffffffffffffffff16021790555080600160006101000a81548173ffffffffffffffffffffffffffffffffffffffff021916908373ffffffffffffffffffffffffffffffffffffffff16021790555050610b11806100c46000396000f300608060405260043610610078576000357c0100000000000000000000000000000000000000000000000000000000900463ffffffff168063410085df1461007d578063715018a6146100ca5780638d59d1f1146100e15780638da5cb5b14610154578063e3d670d7146101ab578063f2fde38b14610202575b600080fd5b34801561008957600080fd5b506100c8600480360381019080803573ffffffffffffffffffffffffffffffffffffffff16906020019092919080359060200190929190505050610245565b005b3480156100d657600080fd5b506100df6103a4565b005b3480156100ed57600080fd5b5061015260048036038101908080359060200190929190803590602001908201803590602001908080601f01602080910402602001604051908101604052809392919081815260200183838082843782019150505050505091929192905050506104a6565b005b34801561016057600080fd5b50610169610880565b604051808273ffffffffffffffffffffffffffffffffffffffff1673ffffffffffffffffffffffffffffffffffffffff16815260200191505060405180910390f35b3480156101b757600080fd5b506101ec600480360381019080803573ffffffffffffffffffffffffffffffffffffffff1690602001909291905050506108a5565b6040518082815260200191505060405180910390f35b34801561020e57600080fd5b50610243600480360381019080803573ffffffffffffffffffffffffffffffffffffffff169060200190929190505050610984565b005b6000809054906101000a900473ffffffffffffffffffffffffffffffffffffffff1673ffffffffffffffffffffffffffffffffffffffff163373ffffffffffffffffffffffffffffffffffffffff161415156102a057600080fd5b8173ffffffffffffffffffffffffffffffffffffffff1663a9059cbb6000809054906101000a900473ffffffffffffffffffffffffffffffffffffffff16836040518363ffffffff167c0100000000000000000000000000000000000000000000000000000000028152600401808373ffffffffffffffffffffffffffffffffffffffff1673ffffffffffffffffffffffffffffffffffffffff16815260200182815260200192505050602060405180830381600087803b15801561036457600080fd5b505af1158015610378573d6000803e3d6000fd5b505050506040513d602081101561038e57600080fd5b8101908080519060200190929190505050505050565b6000809054906101000a900473ffffffffffffffffffffffffffffffffffffffff1673ffffffffffffffffffffffffffffffffffffffff163373ffffffffffffffffffffffffffffffffffffffff161415156103ff57600080fd5b6000809054906101000a900473ffffffffffffffffffffffffffffffffffffffff1673ffffffffffffffffffffffffffffffffffffffff167ff8df31144d9c2f0f6b59d69b8b98abd5459d07f2742c4df920b25aae33c6482060405160405180910390a260008060006101000a81548173ffffffffffffffffffffffffffffffffffffffff021916908373ffffffffffffffffffffffffffffffffffffffff160217905550565b6000806000809054906101000a900473ffffffffffffffffffffffffffffffffffffffff1673ffffffffffffffffffffffffffffffffffffffff163373ffffffffffffffffffffffffffffffffffffffff1614151561050457600080fd5b600160009054906101000a900473ffffffffffffffffffffffffffffffffffffffff1673ffffffffffffffffffffffffffffffffffffffff1663e750b5c0846040518263ffffffff167c01000000000000000000000000000000000000000000000000000000000281526004018080602001828103825283818151815260200191508051906020019080838360005b838110156105ae578082015181840152602081019050610593565b50505050905090810190601f1680156105db5780820380516001836020036101000a031916815260200191505b5092505050602060405180830381600087803b1580156105fa57600080fd5b505af115801561060e573d6000803e3d6000fd5b505050506040513d602081101561062457600080fd5b81019080805190602001909291905050509150600073ffffffffffffffffffffffffffffffffffffffff168273ffffffffffffffffffffffffffffffffffffffff161415151561067357600080fd5b8173ffffffffffffffffffffffffffffffffffffffff166321df0da76040518163ffffffff167c0100000000000000000000000000000000000000000000000000000000028152600401602060405180830381600087803b1580156106d757600080fd5b505af11580156106eb573d6000803e3d6000fd5b505050506040513d602081101561070157600080fd5b810190808051906020019092919050505090508073ffffffffffffffffffffffffffffffffffffffff1663095ea7b383866040518363ffffffff167c0100000000000000000000000000000000000000000000000000000000028152600401808373ffffffffffffffffffffffffffffffffffffffff1673ffffffffffffffffffffffffffffffffffffffff16815260200182815260200192505050602060405180830381600087803b1580156107b757600080fd5b505af11580156107cb573d6000803e3d6000fd5b505050506040513d60208110156107e157600080fd5b8101908080519060200190929190505050508173ffffffffffffffffffffffffffffffffffffffff1663a94385a0856040518263ffffffff167c010000000000000000000000000000000000000000000000000000000002815260040180828152602001915050600060405180830381600087803b15801561086257600080fd5b505af1158015610876573d6000803e3d6000fd5b5050505050505050565b6000809054906101000a900473ffffffffffffffffffffffffffffffffffffffff1681565b60008173ffffffffffffffffffffffffffffffffffffffff166370a08231306040518263ffffffff167c0100000000000000000000000000000000000000000000000000000000028152600401808273ffffffffffffffffffffffffffffffffffffffff1673ffffffffffffffffffffffffffffffffffffffff168152602001915050602060405180830381600087803b15801561094257600080fd5b505af1158015610956573d6000803e3d6000fd5b505050506040513d602081101561096c57600080fd5b81019080805190602001909291905050509050919050565b6000809054906101000a900473ffffffffffffffffffffffffffffffffffffffff1673ffffffffffffffffffffffffffffffffffffffff163373ffffffffffffffffffffffffffffffffffffffff161415156109df57600080fd5b6109e8816109eb565b50565b600073ffffffffffffffffffffffffffffffffffffffff168173ffffffffffffffffffffffffffffffffffffffff1614151515610a2757600080fd5b8073ffffffffffffffffffffffffffffffffffffffff166000809054906101000a900473ffffffffffffffffffffffffffffffffffffffff1673ffffffffffffffffffffffffffffffffffffffff167f8be0079c531659141344cd1fd0a4f28419497f9722a3daafe3b4186f6b6457e060405160405180910390a3806000806101000a81548173ffffffffffffffffffffffffffffffffffffffff021916908373ffffffffffffffffffffffffffffffffffffffff160217905550505600a165627a7a723058202d8d01f91c889dbfc9ddda461956c8edf36689df2645483ba860c1f92a0251360029",
  "source": "pragma solidity ^0.4.24;\r\n\r\nimport 'openzeppelin-solidity/contracts/token/ERC20/ERC20.sol';\r\nimport 'openzeppelin-solidity/contracts/math/SafeMath.sol';\r\nimport 'openzeppelin-solidity/contracts/ownership/Ownable.sol';\r\nimport './Project.sol';\r\nimport './ProjectCatalog.sol';\r\n\r\ncontract DonationWallet is Ownable {\r\n  using SafeMath for uint256;\r\n\r\n  ProjectCatalog projectCatalog;\r\n\r\n  constructor(ProjectCatalog _projectCatalog) public {\r\n    projectCatalog = _projectCatalog;\r\n  }\r\n\r\n  function donate(uint _amount, string _projectName) public onlyOwner {\r\n    address projectAddress = projectCatalog.getProjectAddress(_projectName);\r\n    require(projectAddress != address(0));\r\n    ERC20 token = Project(projectAddress).getToken();\r\n\r\n    token.approve(projectAddress, _amount);\r\n    Project(projectAddress).donateFromWallet(_amount);\r\n  }\r\n\r\n  function refund(ERC20 _token, uint _amount) public onlyOwner {\r\n    _token.transfer(owner, _amount);\r\n  }\r\n\r\n  function balance(ERC20 _token) public view returns(uint256){\r\n    return _token.balanceOf(this);\r\n  }\r\n\r\n}",
  "sourcePath": "C:\\Users\\tobog\\Documents\\GitHub\\charity\\contracts\\alice\\DonationWallet.sol",
  "compiler": {
    "name": "solc",
    "version": "0.4.26+commit.4563c3fc.Emscripten.clang"
  },
  "schemaVersion": "3.0.23",
  "updatedAt": "2020-04-20T16:01:03.741Z",
  "devdoc": {
    "methods": {
      "renounceOwnership()": {
        "details": "Allows the current owner to relinquish control of the contract."
      },
      "transferOwnership(address)": {
        "details": "Allows the current owner to transfer control of the contract to a newOwner.",
        "params": {
          "_newOwner": "The address to transfer ownership to."
        }
      }
    }
  },
  "userdoc": {
    "methods": {
      "renounceOwnership()": {
        "notice": "Renouncing to ownership will leave the contract without an owner. It will not be possible to call the functions with the `onlyOwner` modifier anymore."
      }
    }
  }
}