{
  "contractName": "Escapable",
  "abi": [
    {
      "constant": true,
      "inputs": [],
      "name": "escapeController",
      "outputs": [
        {
          "name": "",
          "type": "address"
        }
      ],
      "payable": false,
      "stateMutability": "view",
      "type": "function"
    },
    {
      "constant": true,
      "inputs": [],
      "name": "escapeTarget",
      "outputs": [
        {
          "name": "",
          "type": "address"
        }
      ],
      "payable": false,
      "stateMutability": "view",
      "type": "function"
    },
    {
      "inputs": [
        {
          "name": "_escapeController",
          "type": "address"
        },
        {
          "name": "_escapeTarget",
          "type": "address"
        }
      ],
      "payable": false,
      "stateMutability": "nonpayable",
      "type": "constructor"
    },
    {
      "anonymous": false,
      "inputs": [
        {
          "indexed": true,
          "name": "destination",
          "type": "address"
        },
        {
          "indexed": true,
          "name": "amount",
          "type": "uint256"
        }
      ],
      "name": "FundsEscaped",
      "type": "event"
    },
    {
      "constant": false,
      "inputs": [
        {
          "name": "token",
          "type": "address"
        }
      ],
      "name": "escape",
      "outputs": [],
      "payable": false,
      "stateMutability": "nonpayable",
      "type": "function"
    },
    {
      "constant": false,
      "inputs": [
        {
          "name": "_newEscapeController",
          "type": "address"
        }
      ],
      "name": "changeEscapeController",
      "outputs": [],
      "payable": false,
      "stateMutability": "nonpayable",
      "type": "function"
    }
  ],
  "bytecode": "0x608060405234801561001057600080fd5b506040516040806106248339810180604052810190808051906020019092919080519060200190929190505050816000806101000a81548173ffffffffffffffffffffffffffffffffffffffff021916908373ffffffffffffffffffffffffffffffffffffffff16021790555080600160006101000a81548173ffffffffffffffffffffffffffffffffffffffff021916908373ffffffffffffffffffffffffffffffffffffffff1602179055505050610555806100cf6000396000f300608060405260043610610062576000357c0100000000000000000000000000000000000000000000000000000000900463ffffffff16806323201a8b14610067578063961891d5146100be5780639cb6ed7e146101015780639ecc4dff14610144575b600080fd5b34801561007357600080fd5b5061007c61019b565b604051808273ffffffffffffffffffffffffffffffffffffffff1673ffffffffffffffffffffffffffffffffffffffff16815260200191505060405180910390f35b3480156100ca57600080fd5b506100ff600480360381019080803573ffffffffffffffffffffffffffffffffffffffff1690602001909291905050506101c0565b005b34801561010d57600080fd5b50610142600480360381019080803573ffffffffffffffffffffffffffffffffffffffff16906020019092919050505061025e565b005b34801561015057600080fd5b50610159610503565b604051808273ffffffffffffffffffffffffffffffffffffffff1673ffffffffffffffffffffffffffffffffffffffff16815260200191505060405180910390f35b6000809054906101000a900473ffffffffffffffffffffffffffffffffffffffff1681565b6000809054906101000a900473ffffffffffffffffffffffffffffffffffffffff1673ffffffffffffffffffffffffffffffffffffffff163373ffffffffffffffffffffffffffffffffffffffff1614151561021b57600080fd5b806000806101000a81548173ffffffffffffffffffffffffffffffffffffffff021916908373ffffffffffffffffffffffffffffffffffffffff16021790555050565b60008060009054906101000a900473ffffffffffffffffffffffffffffffffffffffff1673ffffffffffffffffffffffffffffffffffffffff163373ffffffffffffffffffffffffffffffffffffffff161415156102bb57600080fd5b8173ffffffffffffffffffffffffffffffffffffffff166370a08231306040518263ffffffff167c0100000000000000000000000000000000000000000000000000000000028152600401808273ffffffffffffffffffffffffffffffffffffffff1673ffffffffffffffffffffffffffffffffffffffff168152602001915050602060405180830381600087803b15801561035657600080fd5b505af115801561036a573d6000803e3d6000fd5b505050506040513d602081101561038057600080fd5b810190808051906020019092919050505090508173ffffffffffffffffffffffffffffffffffffffff1663a9059cbb600160009054906101000a900473ffffffffffffffffffffffffffffffffffffffff16836040518363ffffffff167c0100000000000000000000000000000000000000000000000000000000028152600401808373ffffffffffffffffffffffffffffffffffffffff1673ffffffffffffffffffffffffffffffffffffffff16815260200182815260200192505050602060405180830381600087803b15801561045857600080fd5b505af115801561046c573d6000803e3d6000fd5b505050506040513d602081101561048257600080fd5b8101908080519060200190929190505050156104ff5780600160009054906101000a900473ffffffffffffffffffffffffffffffffffffffff1673ffffffffffffffffffffffffffffffffffffffff167f29b2e01e4c5cbc139f8f4422fb8d86e4a65bac3c321735321f5867c4860b127060405160405180910390a35b5050565b600160009054906101000a900473ffffffffffffffffffffffffffffffffffffffff16815600a165627a7a72305820f5fe3a473697f1c853831cba61e1c89b6827f1050c8988b89974ec7b37b517a30029",
  "source": "pragma solidity ^0.4.24;\r\n\r\nimport 'openzeppelin-solidity/contracts/token/ERC20/ERC20.sol';\r\n\r\n\r\n/**\r\n * @title Escapable\r\n * @dev The Escapable contract enables escapeController to transfer funds out of the contract\r\n * in case of emergency.\r\n */\r\ncontract Escapable {\r\n    address public escapeController;\r\n    address public escapeTarget;\r\n\r\n\r\n    event FundsEscaped(address indexed destination, uint indexed amount);\r\n\r\n    /**\r\n     * @dev Throws if called by any account other than the owner.\r\n     */\r\n    modifier onlyEscapeController() {\r\n        require(msg.sender == escapeController);\r\n        _;\r\n    }\r\n\r\n\r\n    /**\r\n     * @dev The Escapable constructor sets the initial _escapeController and _escapeTarget.\r\n     * account.\r\n     */\r\n    constructor(address _escapeController, address _escapeTarget) public {\r\n        escapeController = _escapeController;\r\n        escapeTarget = _escapeTarget;\r\n    }\r\n\r\n\r\n    function escape(ERC20 token) public onlyEscapeController {\r\n        uint total = token.balanceOf(this);\r\n        if (token.transfer(escapeTarget, total)) {\r\n            emit FundsEscaped(escapeTarget, total);\r\n        }\r\n    }\r\n\r\n\r\n    /**\r\n     * @dev Allows the current escape controller to transfer control of the contract\r\n     * to a new escape controller.\r\n     * @param _newEscapeController The address to transfer control to.\r\n     */\r\n    function changeEscapeController(address _newEscapeController) public onlyEscapeController {\r\n        escapeController = _newEscapeController;\r\n    }\r\n\r\n}\r\n",
  "sourcePath": "C:\\Users\\tobog\\Documents\\GitHub\\charity\\contracts\\alice\\Escapable.sol",
  "compiler": {
    "name": "solc",
    "version": "0.4.26+commit.4563c3fc.Emscripten.clang"
  },
  "schemaVersion": "3.0.23",
  "updatedAt": "2020-04-20T01:51:34.131Z",
  "devdoc": {
    "methods": {
      "changeEscapeController(address)": {
        "details": "Allows the current escape controller to transfer control of the contract\r to a new escape controller.\r",
        "params": {
          "_newEscapeController": "The address to transfer control to.\r"
        }
      }
    },
    "title": "Escapable\r"
  },
  "userdoc": {
    "methods": {}
  }
}