{
  "contractName": "ImpactRegistry",
  "abi": [
    {
      "constant": true,
      "inputs": [],
      "name": "linker",
      "outputs": [
        {
          "name": "",
          "type": "address"
        }
      ],
      "payable": false,
      "stateMutability": "view",
      "type": "function"
    },
    {
      "constant": false,
      "inputs": [],
      "name": "renounceOwnership",
      "outputs": [],
      "payable": false,
      "stateMutability": "nonpayable",
      "type": "function"
    },
    {
      "constant": true,
      "inputs": [],
      "name": "owner",
      "outputs": [
        {
          "name": "",
          "type": "address"
        }
      ],
      "payable": false,
      "stateMutability": "view",
      "type": "function"
    },
    {
      "constant": true,
      "inputs": [],
      "name": "masterContract",
      "outputs": [
        {
          "name": "",
          "type": "address"
        }
      ],
      "payable": false,
      "stateMutability": "view",
      "type": "function"
    },
    {
      "constant": false,
      "inputs": [
        {
          "name": "_newOwner",
          "type": "address"
        }
      ],
      "name": "transferOwnership",
      "outputs": [],
      "payable": false,
      "stateMutability": "nonpayable",
      "type": "function"
    },
    {
      "inputs": [
        {
          "name": "_masterContract",
          "type": "address"
        }
      ],
      "payable": false,
      "stateMutability": "nonpayable",
      "type": "constructor"
    },
    {
      "anonymous": false,
      "inputs": [
        {
          "indexed": true,
          "name": "previousOwner",
          "type": "address"
        }
      ],
      "name": "OwnershipRenounced",
      "type": "event"
    },
    {
      "anonymous": false,
      "inputs": [
        {
          "indexed": true,
          "name": "previousOwner",
          "type": "address"
        },
        {
          "indexed": true,
          "name": "newOwner",
          "type": "address"
        }
      ],
      "name": "OwnershipTransferred",
      "type": "event"
    },
    {
      "constant": false,
      "inputs": [
        {
          "name": "_from",
          "type": "address"
        },
        {
          "name": "_value",
          "type": "uint256"
        }
      ],
      "name": "registerDonation",
      "outputs": [],
      "payable": false,
      "stateMutability": "nonpayable",
      "type": "function"
    },
    {
      "constant": false,
      "inputs": [
        {
          "name": "_contractAddress",
          "type": "address"
        }
      ],
      "name": "setMasterContract",
      "outputs": [],
      "payable": false,
      "stateMutability": "nonpayable",
      "type": "function"
    },
    {
      "constant": false,
      "inputs": [
        {
          "name": "_linker",
          "type": "address"
        }
      ],
      "name": "setLinker",
      "outputs": [],
      "payable": false,
      "stateMutability": "nonpayable",
      "type": "function"
    },
    {
      "constant": false,
      "inputs": [
        {
          "name": "_claimId",
          "type": "bytes32"
        },
        {
          "name": "_value",
          "type": "uint256"
        }
      ],
      "name": "registerOutcome",
      "outputs": [],
      "payable": false,
      "stateMutability": "nonpayable",
      "type": "function"
    },
    {
      "constant": false,
      "inputs": [
        {
          "name": "_claimId",
          "type": "bytes32"
        }
      ],
      "name": "linkImpact",
      "outputs": [],
      "payable": false,
      "stateMutability": "nonpayable",
      "type": "function"
    },
    {
      "constant": false,
      "inputs": [
        {
          "name": "_account",
          "type": "address"
        }
      ],
      "name": "payBack",
      "outputs": [],
      "payable": false,
      "stateMutability": "nonpayable",
      "type": "function"
    },
    {
      "constant": false,
      "inputs": [
        {
          "name": "_claimId",
          "type": "bytes32"
        },
        {
          "name": "_accountIndex",
          "type": "uint256"
        },
        {
          "name": "_linkedValue",
          "type": "uint256"
        }
      ],
      "name": "registerImpact",
      "outputs": [],
      "payable": false,
      "stateMutability": "nonpayable",
      "type": "function"
    },
    {
      "constant": true,
      "inputs": [],
      "name": "getAccountsCount",
      "outputs": [
        {
          "name": "",
          "type": "uint256"
        }
      ],
      "payable": false,
      "stateMutability": "view",
      "type": "function"
    },
    {
      "constant": true,
      "inputs": [
        {
          "name": "_index",
          "type": "uint256"
        }
      ],
      "name": "getAccount",
      "outputs": [
        {
          "name": "",
          "type": "address"
        }
      ],
      "payable": false,
      "stateMutability": "view",
      "type": "function"
    },
    {
      "constant": true,
      "inputs": [
        {
          "name": "_donorAddress",
          "type": "address"
        }
      ],
      "name": "getBalance",
      "outputs": [
        {
          "name": "",
          "type": "uint256"
        }
      ],
      "payable": false,
      "stateMutability": "view",
      "type": "function"
    },
    {
      "constant": true,
      "inputs": [
        {
          "name": "_claimId",
          "type": "bytes32"
        }
      ],
      "name": "getImpactCount",
      "outputs": [
        {
          "name": "",
          "type": "uint256"
        }
      ],
      "payable": false,
      "stateMutability": "view",
      "type": "function"
    },
    {
      "constant": true,
      "inputs": [
        {
          "name": "_claimId",
          "type": "bytes32"
        }
      ],
      "name": "getImpactLinked",
      "outputs": [
        {
          "name": "",
          "type": "uint256"
        }
      ],
      "payable": false,
      "stateMutability": "view",
      "type": "function"
    },
    {
      "constant": true,
      "inputs": [
        {
          "name": "_claimId",
          "type": "bytes32"
        }
      ],
      "name": "getImpactTotalValue",
      "outputs": [
        {
          "name": "",
          "type": "uint256"
        }
      ],
      "payable": false,
      "stateMutability": "view",
      "type": "function"
    },
    {
      "constant": true,
      "inputs": [
        {
          "name": "_claimId",
          "type": "bytes32"
        }
      ],
      "name": "getImpactUnmatchedValue",
      "outputs": [
        {
          "name": "",
          "type": "uint256"
        }
      ],
      "payable": false,
      "stateMutability": "view",
      "type": "function"
    },
    {
      "constant": true,
      "inputs": [
        {
          "name": "_claimId",
          "type": "bytes32"
        },
        {
          "name": "index",
          "type": "uint256"
        }
      ],
      "name": "getImpactDonor",
      "outputs": [
        {
          "name": "",
          "type": "address"
        }
      ],
      "payable": false,
      "stateMutability": "view",
      "type": "function"
    },
    {
      "constant": true,
      "inputs": [
        {
          "name": "_claimId",
          "type": "bytes32"
        },
        {
          "name": "addr",
          "type": "address"
        }
      ],
      "name": "getImpactValue",
      "outputs": [
        {
          "name": "",
          "type": "uint256"
        }
      ],
      "payable": false,
      "stateMutability": "view",
      "type": "function"
    }
  ],
  "bytecode": "0x608060405234801561001057600080fd5b5060405160208061188d83398101806040528101908080519060200190929190505050336000806101000a81548173ffffffffffffffffffffffffffffffffffffffff021916908373ffffffffffffffffffffffffffffffffffffffff16021790555080600160006101000a81548173ffffffffffffffffffffffffffffffffffffffff021916908373ffffffffffffffffffffffffffffffffffffffff160217905550506117c9806100c46000396000f30060806040526004361061011d576000357c0100000000000000000000000000000000000000000000000000000000900463ffffffff1680630d0b79a41461012257806314d23b82146101795780632a3a236f146101be5780633c49dde41461020157806344d75c0b1461024e5780634e92bc4b1461029357806356ffeee4146102d85780635dd9d9fa146103135780636293fd1e14610358578063715018a61461039b578063770e3106146103b257806386e875e3146103dd5780638792f8551461040e5780638da5cb5b14610489578063bba565ee146104e0578063c559207114610545578063cd446e221461058a578063ce88b145146105e1578063f25e42c01461064e578063f2fde38b14610691578063f8b2cb4f146106d4575b600080fd5b34801561012e57600080fd5b5061013761072b565b604051808273ffffffffffffffffffffffffffffffffffffffff1673ffffffffffffffffffffffffffffffffffffffff16815260200191505060405180910390f35b34801561018557600080fd5b506101a86004803603810190808035600019169060200190929190505050610751565b6040518082815260200191505060405180910390f35b3480156101ca57600080fd5b506101ff600480360381019080803573ffffffffffffffffffffffffffffffffffffffff169060200190929190505050610779565b005b34801561020d57600080fd5b5061024c600480360381019080803573ffffffffffffffffffffffffffffffffffffffff16906020019092919080359060200190929190505050610818565b005b34801561025a57600080fd5b5061027d6004803603810190808035600019169060200190929190505050610a13565b6040518082815260200191505060405180910390f35b34801561029f57600080fd5b506102c26004803603810190808035600019169060200190929190505050610a3b565b6040518082815260200191505060405180910390f35b3480156102e457600080fd5b50610311600480360381019080803560001916906020019092919080359060200190929190505050610a63565b005b34801561031f57600080fd5b506103426004803603810190808035600019169060200190929190505050610b74565b6040518082815260200191505060405180910390f35b34801561036457600080fd5b50610399600480360381019080803573ffffffffffffffffffffffffffffffffffffffff169060200190929190505050610bcc565b005b3480156103a757600080fd5b506103b0610cc7565b005b3480156103be57600080fd5b506103c7610dc9565b6040518082815260200191505060405180910390f35b3480156103e957600080fd5b5061040c6004803603810190808035600019169060200190929190505050610dd6565b005b34801561041a57600080fd5b50610447600480360381019080803560001916906020019092919080359060200190929190505050610ee5565b604051808273ffffffffffffffffffffffffffffffffffffffff1673ffffffffffffffffffffffffffffffffffffffff16815260200191505060405180910390f35b34801561049557600080fd5b5061049e610f3f565b604051808273ffffffffffffffffffffffffffffffffffffffff1673ffffffffffffffffffffffffffffffffffffffff16815260200191505060405180910390f35b3480156104ec57600080fd5b5061052f6004803603810190808035600019169060200190929190803573ffffffffffffffffffffffffffffffffffffffff169060200190929190505050610f64565b6040518082815260200191505060405180910390f35b34801561055157600080fd5b5061058860048036038101908080356000191690602001909291908035906020019092919080359060200190929190505050610fca565b005b34801561059657600080fd5b5061059f611295565b604051808273ffffffffffffffffffffffffffffffffffffffff1673ffffffffffffffffffffffffffffffffffffffff16815260200191505060405180910390f35b3480156105ed57600080fd5b5061060c600480360381019080803590602001909291905050506112bb565b604051808273ffffffffffffffffffffffffffffffffffffffff1673ffffffffffffffffffffffffffffffffffffffff16815260200191505060405180910390f35b34801561065a57600080fd5b5061068f600480360381019080803573ffffffffffffffffffffffffffffffffffffffff1690602001909291905050506112fe565b005b34801561069d57600080fd5b506106d2600480360381019080803573ffffffffffffffffffffffffffffffffffffffff16906020019092919050505061139d565b005b3480156106e057600080fd5b50610715600480360381019080803573ffffffffffffffffffffffffffffffffffffffff169060200190929190505050611404565b6040518082815260200191505060405180910390f35b600260009054906101000a900473ffffffffffffffffffffffffffffffffffffffff1681565b6000600560008360001916600019168152602001908152602001600020600001549050919050565b6000809054906101000a900473ffffffffffffffffffffffffffffffffffffffff1673ffffffffffffffffffffffffffffffffffffffff163373ffffffffffffffffffffffffffffffffffffffff161415156107d457600080fd5b80600160006101000a81548173ffffffffffffffffffffffffffffffffffffffff021916908373ffffffffffffffffffffffffffffffffffffffff16021790555050565b6000809054906101000a900473ffffffffffffffffffffffffffffffffffffffff1673ffffffffffffffffffffffffffffffffffffffff163373ffffffffffffffffffffffffffffffffffffffff1614806108c05750600160009054906101000a900473ffffffffffffffffffffffffffffffffffffffff1673ffffffffffffffffffffffffffffffffffffffff163373ffffffffffffffffffffffffffffffffffffffff16145b15156108cb57600080fd5b6000600360008473ffffffffffffffffffffffffffffffffffffffff1673ffffffffffffffffffffffffffffffffffffffff16815260200190815260200160002054141561097a5760048290806001815401808255809150509060018203906000526020600020016000909192909190916101000a81548173ffffffffffffffffffffffffffffffffffffffff021916908373ffffffffffffffffffffffffffffffffffffffff160217905550505b6109cc81600360008573ffffffffffffffffffffffffffffffffffffffff1673ffffffffffffffffffffffffffffffffffffffff1681526020019081526020016000205461144d90919063ffffffff16565b600360008473ffffffffffffffffffffffffffffffffffffffff1673ffffffffffffffffffffffffffffffffffffffff168152602001908152602001600020819055505050565b6000600560008360001916600019168152602001908152602001600020600101549050919050565b6000600560008360001916600019168152602001908152602001600020600201549050919050565b6000809054906101000a900473ffffffffffffffffffffffffffffffffffffffff1673ffffffffffffffffffffffffffffffffffffffff163373ffffffffffffffffffffffffffffffffffffffff161480610b0b5750600160009054906101000a900473ffffffffffffffffffffffffffffffffffffffff1673ffffffffffffffffffffffffffffffffffffffff163373ffffffffffffffffffffffffffffffffffffffff16145b1515610b1657600080fd5b6060604051908101604052808281526020016000815260200160008152506005600084600019166000191681526020019081526020016000206000820151816000015560208201518160010155604082015181600201559050505050565b6000610bc5600560008460001916600019168152602001908152602001600020600101546005600085600019166000191681526020019081526020016000206000015461146990919063ffffffff16565b9050919050565b6000809054906101000a900473ffffffffffffffffffffffffffffffffffffffff1673ffffffffffffffffffffffffffffffffffffffff163373ffffffffffffffffffffffffffffffffffffffff161480610c745750600160009054906101000a900473ffffffffffffffffffffffffffffffffffffffff1673ffffffffffffffffffffffffffffffffffffffff163373ffffffffffffffffffffffffffffffffffffffff16145b1515610c7f57600080fd5b6000600360008373ffffffffffffffffffffffffffffffffffffffff1673ffffffffffffffffffffffffffffffffffffffff1681526020019081526020016000208190555050565b6000809054906101000a900473ffffffffffffffffffffffffffffffffffffffff1673ffffffffffffffffffffffffffffffffffffffff163373ffffffffffffffffffffffffffffffffffffffff16141515610d2257600080fd5b6000809054906101000a900473ffffffffffffffffffffffffffffffffffffffff1673ffffffffffffffffffffffffffffffffffffffff167ff8df31144d9c2f0f6b59d69b8b98abd5459d07f2742c4df920b25aae33c6482060405160405180910390a260008060006101000a81548173ffffffffffffffffffffffffffffffffffffffff021916908373ffffffffffffffffffffffffffffffffffffffff160217905550565b6000600480549050905090565b6000809054906101000a900473ffffffffffffffffffffffffffffffffffffffff1673ffffffffffffffffffffffffffffffffffffffff163373ffffffffffffffffffffffffffffffffffffffff16141515610e3157600080fd5b600260009054906101000a900473ffffffffffffffffffffffffffffffffffffffff1673ffffffffffffffffffffffffffffffffffffffff166386e875e3826040518263ffffffff167c0100000000000000000000000000000000000000000000000000000000028152600401808260001916600019168152602001915050600060405180830381600087803b158015610eca57600080fd5b505af1158015610ede573d6000803e3d6000fd5b5050505050565b6000600560008460001916600019168152602001908152602001600020600301600083815260200190815260200160002060009054906101000a900473ffffffffffffffffffffffffffffffffffffffff16905092915050565b6000809054906101000a900473ffffffffffffffffffffffffffffffffffffffff1681565b600060056000846000191660001916815260200190815260200160002060040160008373ffffffffffffffffffffffffffffffffffffffff1673ffffffffffffffffffffffffffffffffffffffff16815260200190815260200160002054905092915050565b600080600260009054906101000a900473ffffffffffffffffffffffffffffffffffffffff1673ffffffffffffffffffffffffffffffffffffffff163373ffffffffffffffffffffffffffffffffffffffff1614151561102957600080fd5b60056000866000191660001916815260200190815260200160002091503073ffffffffffffffffffffffffffffffffffffffff1663ce88b145856040518263ffffffff167c010000000000000000000000000000000000000000000000000000000002815260040180828152602001915050602060405180830381600087803b1580156110b557600080fd5b505af11580156110c9573d6000803e3d6000fd5b505050506040513d60208110156110df57600080fd5b8101908080519060200190929190505050905060008260040160008373ffffffffffffffffffffffffffffffffffffffff1673ffffffffffffffffffffffffffffffffffffffff1681526020019081526020016000205414156111a3578082600301600084600201600081548092919060010191905055815260200190815260200160002060006101000a81548173ffffffffffffffffffffffffffffffffffffffff021916908373ffffffffffffffffffffffffffffffffffffffff1602179055505b826111bf8360010154846000015461146990919063ffffffff16565b101515156111cc57600080fd5b6111d68484611482565b61122a838360040160008473ffffffffffffffffffffffffffffffffffffffff1673ffffffffffffffffffffffffffffffffffffffff1681526020019081526020016000205461144d90919063ffffffff16565b8260040160008373ffffffffffffffffffffffffffffffffffffffff1673ffffffffffffffffffffffffffffffffffffffff1681526020019081526020016000208190555061128683836001015461144d90919063ffffffff16565b82600101819055505050505050565b600160009054906101000a900473ffffffffffffffffffffffffffffffffffffffff1681565b60006004828154811015156112cc57fe5b9060005260206000200160009054906101000a900473ffffffffffffffffffffffffffffffffffffffff169050919050565b6000809054906101000a900473ffffffffffffffffffffffffffffffffffffffff1673ffffffffffffffffffffffffffffffffffffffff163373ffffffffffffffffffffffffffffffffffffffff1614151561135957600080fd5b80600260006101000a81548173ffffffffffffffffffffffffffffffffffffffff021916908373ffffffffffffffffffffffffffffffffffffffff16021790555050565b6000809054906101000a900473ffffffffffffffffffffffffffffffffffffffff1673ffffffffffffffffffffffffffffffffffffffff163373ffffffffffffffffffffffffffffffffffffffff161415156113f857600080fd5b61140181611652565b50565b6000600360008373ffffffffffffffffffffffffffffffffffffffff1673ffffffffffffffffffffffffffffffffffffffff168152602001908152602001600020549050919050565b6000818301905082811015151561146057fe5b80905092915050565b600082821115151561147757fe5b818303905092915050565b6000806003600060048681548110151561149857fe5b9060005260206000200160009054906101000a900473ffffffffffffffffffffffffffffffffffffffff1673ffffffffffffffffffffffffffffffffffffffff1673ffffffffffffffffffffffffffffffffffffffff168152602001908152602001600020549150611513838361146990919063ffffffff16565b9050806003600060048781548110151561152957fe5b9060005260206000200160009054906101000a900473ffffffffffffffffffffffffffffffffffffffff1673ffffffffffffffffffffffffffffffffffffffff1673ffffffffffffffffffffffffffffffffffffffff16815260200190815260200160002081905550600081141561164c5760046001600480549050038154811015156115b257fe5b9060005260206000200160009054906101000a900473ffffffffffffffffffffffffffffffffffffffff166004858154811015156115ec57fe5b9060005260206000200160006101000a81548173ffffffffffffffffffffffffffffffffffffffff021916908373ffffffffffffffffffffffffffffffffffffffff16021790555060016004805490500360048161164a919061174c565b505b50505050565b600073ffffffffffffffffffffffffffffffffffffffff168173ffffffffffffffffffffffffffffffffffffffff161415151561168e57600080fd5b8073ffffffffffffffffffffffffffffffffffffffff166000809054906101000a900473ffffffffffffffffffffffffffffffffffffffff1673ffffffffffffffffffffffffffffffffffffffff167f8be0079c531659141344cd1fd0a4f28419497f9722a3daafe3b4186f6b6457e060405160405180910390a3806000806101000a81548173ffffffffffffffffffffffffffffffffffffffff021916908373ffffffffffffffffffffffffffffffffffffffff16021790555050565b815481835581811115611773578183600052602060002091820191016117729190611778565b5b505050565b61179a91905b8082111561179657600081600090555060010161177e565b5090565b905600a165627a7a723058209ac27e129623c5f50630e4111d2941dd4d0e6437131231e8f1e2869b7ab630960029",
  "source": "pragma solidity ^0.4.24;\r\n\r\nimport 'openzeppelin-solidity/contracts/ownership/Ownable.sol';\r\nimport 'openzeppelin-solidity/contracts/math/SafeMath.sol';\r\nimport './ImpactLinker.sol';\r\n\r\n\r\ncontract ImpactRegistry is Ownable {\r\n  using SafeMath for uint256;\r\n\r\n  modifier onlyMaster {\r\n    require (msg.sender == owner || msg.sender == masterContract);\r\n    _;\r\n  }\r\n\r\n  modifier onlyLinker {\r\n    require(msg.sender == address(linker));\r\n    _;\r\n  }\r\n\r\n  address public masterContract;\r\n  ImpactLinker public linker;\r\n\r\n  /* This creates a map with donations per user */\r\n  mapping (address => uint) accountBalances;\r\n\r\n  /* Additional structure to help to iterate over donations */\r\n  address[] accountIndex;\r\n\r\n  struct Impact {\r\n    uint value;\r\n    uint linked;\r\n    uint count;\r\n    mapping(uint => address) addresses;\r\n    mapping(address => uint) values;\r\n  }\r\n\r\n  /* Structures that store a match between validated outcome claims and donations */\r\n  mapping (bytes32 => Impact) impacts;\r\n\r\n\r\n  constructor(address _masterContract) public {\r\n    masterContract = _masterContract;\r\n  }\r\n\r\n  function registerDonation(address _from, uint _value) public onlyMaster {\r\n    if (accountBalances[_from] == 0) {\r\n      accountIndex.push(_from);\r\n    }\r\n\r\n    accountBalances[_from] = accountBalances[_from].add(_value);\r\n  }\r\n\r\n  function setMasterContract(address _contractAddress) public onlyOwner {\r\n      masterContract = _contractAddress;\r\n  }\r\n\r\n  function setLinker(ImpactLinker _linker) public onlyOwner {\r\n    linker = _linker;\r\n  }\r\n\r\n  function registerOutcome(bytes32 _claimId, uint _value) external onlyMaster {\r\n    impacts[_claimId] = Impact(_value, 0, 0);\r\n  }\r\n\r\n  function linkImpact(bytes32 _claimId) external onlyOwner {\r\n    linker.linkImpact(_claimId);\r\n  }\r\n\r\n  function payBack(address _account) public onlyMaster {\r\n    accountBalances[_account] = 0;\r\n  }\r\n\r\n  function registerImpact(bytes32 _claimId, uint _accountIndex, uint _linkedValue) external onlyLinker  {\r\n    Impact storage impact = impacts[_claimId];\r\n    address account = this.getAccount(_accountIndex);\r\n    if (impact.values[account] == 0) {\r\n      impact.addresses[impact.count++] = account;\r\n    }\r\n\r\n    require(impact.value.sub(impact.linked) >= _linkedValue);\r\n\r\n    updateBalance(_accountIndex, _linkedValue);\r\n\r\n    impact.values[account] = impact.values[account].add(_linkedValue);\r\n    impact.linked = impact.linked.add(_linkedValue);\r\n  }\r\n\r\n  function updateBalance(uint _index, uint _linkedValue) internal {\r\n    uint oldBalance = accountBalances[accountIndex[_index]];\r\n    uint newBalance = oldBalance.sub(_linkedValue);\r\n\r\n    accountBalances[accountIndex[_index]] = newBalance;\r\n    if (newBalance == 0) {\r\n      accountIndex[_index] = accountIndex[accountIndex.length-1];\r\n      accountIndex.length = accountIndex.length - 1;\r\n    }\r\n  }\r\n\r\n\r\n  function getAccountsCount() public view returns(uint) {\r\n    return accountIndex.length;\r\n  }\r\n\r\n  function getAccount(uint _index) public view returns(address) {\r\n    return accountIndex[_index];\r\n  }\r\n\r\n  function getBalance(address _donorAddress) public view returns(uint) {\r\n    return accountBalances[_donorAddress];\r\n  }\r\n\r\n  function getImpactCount(bytes32 _claimId) public view returns(uint) {\r\n    return impacts[_claimId].count;\r\n  }\r\n\r\n  function getImpactLinked(bytes32 _claimId) public view returns(uint) {\r\n    return impacts[_claimId].linked;\r\n  }\r\n\r\n  function getImpactTotalValue(bytes32 _claimId) public view returns(uint) {\r\n    return impacts[_claimId].value;\r\n  }\r\n\r\n  function getImpactUnmatchedValue(bytes32 _claimId) public view returns(uint) {\r\n    return impacts[_claimId].value.sub(impacts[_claimId].linked);\r\n  }\r\n\r\n  function getImpactDonor(bytes32 _claimId, uint index) public view returns(address) {\r\n    return impacts[_claimId].addresses[index];\r\n  }\r\n\r\n  function getImpactValue(bytes32 _claimId, address addr) public view returns(uint) {\r\n    return impacts[_claimId].values[addr];\r\n  }\r\n\r\n}\r\n",
  "sourcePath": "C:\\Users\\tobog\\Documents\\GitHub\\charity\\contracts\\alice\\impact\\ImpactRegistry.sol",
  "compiler": {
    "name": "solc",
    "version": "0.4.26+commit.4563c3fc.Emscripten.clang"
  },
  "schemaVersion": "3.0.23",
  "updatedAt": "2020-04-20T16:01:03.775Z",
  "devdoc": {
    "methods": {
      "renounceOwnership()": {
        "details": "Allows the current owner to relinquish control of the contract."
      },
      "transferOwnership(address)": {
        "details": "Allows the current owner to transfer control of the contract to a newOwner.",
        "params": {
          "_newOwner": "The address to transfer ownership to."
        }
      }
    }
  },
  "userdoc": {
    "methods": {
      "renounceOwnership()": {
        "notice": "Renouncing to ownership will leave the contract without an owner. It will not be possible to call the functions with the `onlyOwner` modifier anymore."
      }
    }
  }
}