{
  "contractName": "MockValidation",
  "abi": [
    {
      "anonymous": false,
      "inputs": [
        {
          "indexed": false,
          "name": "time",
          "type": "uint256"
        },
        {
          "indexed": true,
          "name": "validator",
          "type": "address"
        },
        {
          "indexed": false,
          "name": "outcome",
          "type": "string"
        },
        {
          "indexed": false,
          "name": "value",
          "type": "uint256"
        }
      ],
      "name": "ValidationEvent",
      "type": "event"
    },
    {
      "constant": false,
      "inputs": [
        {
          "name": "outcome",
          "type": "string"
        },
        {
          "name": "value",
          "type": "uint256"
        }
      ],
      "name": "validate",
      "outputs": [],
      "payable": false,
      "stateMutability": "nonpayable",
      "type": "function"
    },
    {
      "constant": true,
      "inputs": [],
      "name": "getValidationsCount",
      "outputs": [
        {
          "name": "count",
          "type": "uint256"
        }
      ],
      "payable": false,
      "stateMutability": "view",
      "type": "function"
    },
    {
      "constant": true,
      "inputs": [
        {
          "name": "index",
          "type": "uint256"
        }
      ],
      "name": "getValidatorByIndex",
      "outputs": [
        {
          "name": "validator",
          "type": "address"
        }
      ],
      "payable": false,
      "stateMutability": "view",
      "type": "function"
    },
    {
      "constant": true,
      "inputs": [
        {
          "name": "index",
          "type": "uint256"
        }
      ],
      "name": "getOutcomeByIndex",
      "outputs": [
        {
          "name": "outcome",
          "type": "string"
        }
      ],
      "payable": false,
      "stateMutability": "view",
      "type": "function"
    },
    {
      "constant": true,
      "inputs": [
        {
          "name": "index",
          "type": "uint256"
        }
      ],
      "name": "getValueByIndex",
      "outputs": [
        {
          "name": "value",
          "type": "uint256"
        }
      ],
      "payable": false,
      "stateMutability": "view",
      "type": "function"
    }
  ],
  "bytecode": "0x608060405234801561001057600080fd5b50610677806100206000396000f30060806040526004361061006d576000357c0100000000000000000000000000000000000000000000000000000000900463ffffffff16806330af41b3146100725780637ee0cda4146100df57806381e8927b14610152578063dbaf72471461017d578063df4adb94146101be575b600080fd5b34801561007e57600080fd5b5061009d60048036038101908080359060200190929190505050610264565b604051808273ffffffffffffffffffffffffffffffffffffffff1673ffffffffffffffffffffffffffffffffffffffff16815260200191505060405180910390f35b3480156100eb57600080fd5b50610150600480360381019080803590602001908201803590602001908080601f0160208091040260200160405190810160405280939291908181526020018383808284378201915050505050509192919290803590602001909291905050506102ad565b005b34801561015e57600080fd5b50610167610470565b6040518082815260200191505060405180910390f35b34801561018957600080fd5b506101a86004803603810190808035906020019092919050505061047c565b6040518082815260200191505060405180910390f35b3480156101ca57600080fd5b506101e9600480360381019080803590602001909291905050506104a5565b6040518080602001828103825283818151815260200191508051906020019080838360005b8381101561022957808201518184015260208101905061020e565b50505050905090810190601f1680156102565780820380516001836020036101000a031916815260200191505b509250505060405180910390f35b6000808281548110151561027457fe5b906000526020600020906004020160010160009054906101000a900473ffffffffffffffffffffffffffffffffffffffff169050919050565b6102b5610567565b6080604051908101604052804281526020013373ffffffffffffffffffffffffffffffffffffffff168152602001848152602001838152509050600081908060018154018082558091505090600182039060005260206000209060040201600090919290919091506000820151816000015560208201518160010160006101000a81548173ffffffffffffffffffffffffffffffffffffffff021916908373ffffffffffffffffffffffffffffffffffffffff160217905550604082015181600201908051906020019061038a9291906105a6565b5060608201518160030155505050806020015173ffffffffffffffffffffffffffffffffffffffff167f9ab76df04fa8bcd90e76e368031d77fc34a93a7d86fcf2b098aa02850ad7c6638260000151836040015184606001516040518084815260200180602001838152602001828103825284818151815260200191508051906020019080838360005b8381101561042f578082015181840152602081019050610414565b50505050905090810190601f16801561045c5780820380516001836020036101000a031916815260200191505b5094505050505060405180910390a2505050565b60008080549050905090565b6000808281548110151561048c57fe5b9060005260206000209060040201600301549050919050565b60606000828154811015156104b657fe5b90600052602060002090600402016002018054600181600116156101000203166002900480601f01602080910402602001604051908101604052809291908181526020018280546001816001161561010002031660029004801561055b5780601f106105305761010080835404028352916020019161055b565b820191906000526020600020905b81548152906001019060200180831161053e57829003601f168201915b50505050509050919050565b60806040519081016040528060008152602001600073ffffffffffffffffffffffffffffffffffffffff16815260200160608152602001600081525090565b828054600181600116156101000203166002900490600052602060002090601f016020900481019282601f106105e757805160ff1916838001178555610615565b82800160010185558215610615579182015b828111156106145782518255916020019190600101906105f9565b5b5090506106229190610626565b5090565b61064891905b8082111561064457600081600090555060010161062c565b5090565b905600a165627a7a72305820ac7b427576add83cec33d12d79474afcd02740c95203a3063e50c74150ea58dd0029",
  "source": "pragma solidity ^0.4.24;\r\n\r\n//Contract only for testing purposes.\r\n//Don't connect to other contracts or use in a production environment.\r\n//It registers and store performed validations.\r\ncontract MockValidation {\r\n\r\n    event ValidationEvent(uint time, address indexed validator, string outcome, uint value);\r\n\r\n    struct Validation {\r\n        uint time;\r\n        address validator;\r\n        string outcome;\r\n        uint value;\r\n    }\r\n\r\n    Validation[] validations;\r\n\r\n    function validate(string outcome, uint value) public {\r\n        Validation memory validation = Validation(now, msg.sender, outcome, value);\r\n        validations.push(validation);\r\n        emit ValidationEvent(validation.time, validation.validator, validation.outcome, validation.value);\r\n    }\r\n\r\n    function getValidationsCount() constant public returns(uint count) {\r\n        return validations.length;\r\n    }\r\n\r\n    function getValidatorByIndex(uint index) constant public returns(address validator) {\r\n        return validations[index].validator;\r\n    }\r\n\r\n    function getOutcomeByIndex(uint index) constant public returns(string outcome) {\r\n        return validations[index].outcome;\r\n    }\r\n\r\n    function getValueByIndex(uint index) constant public returns(uint value) {\r\n        return validations[index].value;\r\n    }\r\n\r\n}",
  "sourcePath": "C:\\Users\\tobog\\Documents\\GitHub\\charity\\contracts\\alice\\MockValidation.sol",
  "compiler": {
    "name": "solc",
    "version": "0.4.26+commit.4563c3fc.Emscripten.clang"
  },
  "schemaVersion": "3.0.23",
  "updatedAt": "2020-04-20T14:10:55.198Z",
  "networkType": "ethereum",
  "devdoc": {
    "methods": {}
  },
  "userdoc": {
    "methods": {}
  }
}