{
  "contractName": "MoratoriumTransfers",
  "abi": [
    {
      "constant": true,
      "inputs": [],
      "name": "moratoriumPeriod",
      "outputs": [
        {
          "name": "",
          "type": "uint256"
        }
      ],
      "payable": false,
      "stateMutability": "view",
      "type": "function"
    },
    {
      "inputs": [
        {
          "name": "_moratoriumPeriod",
          "type": "uint256"
        },
        {
          "name": "_proposers",
          "type": "address[]"
        },
        {
          "name": "_validators",
          "type": "address[]"
        }
      ],
      "payable": false,
      "stateMutability": "nonpayable",
      "type": "constructor"
    },
    {
      "anonymous": false,
      "inputs": [
        {
          "indexed": true,
          "name": "id",
          "type": "uint256"
        },
        {
          "indexed": true,
          "name": "token",
          "type": "address"
        },
        {
          "indexed": true,
          "name": "to",
          "type": "address"
        },
        {
          "indexed": false,
          "name": "value",
          "type": "uint256"
        }
      ],
      "name": "TransferProposed",
      "type": "event"
    },
    {
      "anonymous": false,
      "inputs": [
        {
          "indexed": true,
          "name": "id",
          "type": "uint256"
        },
        {
          "indexed": true,
          "name": "token",
          "type": "address"
        },
        {
          "indexed": true,
          "name": "to",
          "type": "address"
        },
        {
          "indexed": false,
          "name": "value",
          "type": "uint256"
        }
      ],
      "name": "TransferConfirmed",
      "type": "event"
    },
    {
      "constant": false,
      "inputs": [
        {
          "name": "token",
          "type": "address"
        },
        {
          "name": "to",
          "type": "address"
        },
        {
          "name": "value",
          "type": "uint256"
        }
      ],
      "name": "proposeTransfer",
      "outputs": [
        {
          "name": "",
          "type": "uint256"
        }
      ],
      "payable": false,
      "stateMutability": "nonpayable",
      "type": "function"
    },
    {
      "constant": false,
      "inputs": [
        {
          "name": "_transferId",
          "type": "uint256"
        }
      ],
      "name": "confirmTransfer",
      "outputs": [],
      "payable": false,
      "stateMutability": "nonpayable",
      "type": "function"
    }
  ],
  "bytecode": "0x6080604052600160035534801561001557600080fd5b506040516108d03803806108d083398101806040528101908080519060200190929190805182019291906020018051820192919050505081816000806000845111156100ff5760016000806101000a81548160ff021916908315150217905550600091505b83518210156100fe576001806000868581518110151561009657fe5b9060200190602002015173ffffffffffffffffffffffffffffffffffffffff1673ffffffffffffffffffffffffffffffffffffffff16815260200190815260200160002060006101000a81548160ff021916908315150217905550818060010192505061007a565b5b6000835111156101af576001600060016101000a81548160ff021916908315150217905550600090505b82518110156101ae57600160026000858481518110151561014657fe5b9060200190602002015173ffffffffffffffffffffffffffffffffffffffff1673ffffffffffffffffffffffffffffffffffffffff16815260200190815260200160002060006101000a81548160ff0219169083151502179055508080600101915050610129565b5b5050505082600681905550505050610704806101cc6000396000f300608060405260043610610057576000357c0100000000000000000000000000000000000000000000000000000000900463ffffffff1680632c48e7db1461005c578063300e5d1f1461008957806364a8a0a0146100b4575b600080fd5b34801561006857600080fd5b5061008760048036038101908080359060200190929190505050610135565b005b34801561009557600080fd5b5061009e6101d2565b6040518082815260200191505060405180910390f35b3480156100c057600080fd5b5061011f600480360381019080803573ffffffffffffffffffffffffffffffffffffffff169060200190929190803573ffffffffffffffffffffffffffffffffffffffff169060200190929190803590602001909291905050506101d8565b6040518082815260200191505060405180910390f35b600060019054906101000a900460ff16158061019a5750600260003373ffffffffffffffffffffffffffffffffffffffff1673ffffffffffffffffffffffffffffffffffffffff16815260200190815260200160002060009054906101000a900460ff165b15156101a557600080fd5b6005600082815260200190815260200160002054421115156101c657600080fd5b6101cf8161027b565b50565b60065481565b6000806000809054906101000a900460ff16158061023f5750600160003373ffffffffffffffffffffffffffffffffffffffff1673ffffffffffffffffffffffffffffffffffffffff16815260200190815260200160002060009054906101000a900460ff165b151561024a57600080fd5b6102558585856104ec565b905060065442016005600083815260200190815260200160002081905550509392505050565b60008060019054906101000a900460ff1615806102e15750600260003373ffffffffffffffffffffffffffffffffffffffff1673ffffffffffffffffffffffffffffffffffffffff16815260200190815260200160002060009054906101000a900460ff165b15156102ec57600080fd5b6004600083815260200190815260200160002090508060000160009054906101000a900473ffffffffffffffffffffffffffffffffffffffff1673ffffffffffffffffffffffffffffffffffffffff1663a9059cbb8260010160009054906101000a900473ffffffffffffffffffffffffffffffffffffffff1683600201546040518363ffffffff167c0100000000000000000000000000000000000000000000000000000000028152600401808373ffffffffffffffffffffffffffffffffffffffff1673ffffffffffffffffffffffffffffffffffffffff16815260200182815260200192505050602060405180830381600087803b1580156103f057600080fd5b505af1158015610404573d6000803e3d6000fd5b505050506040513d602081101561041a57600080fd5b8101908080519060200190929190505050151561043657600080fd5b8060010160009054906101000a900473ffffffffffffffffffffffffffffffffffffffff1673ffffffffffffffffffffffffffffffffffffffff168160000160009054906101000a900473ffffffffffffffffffffffffffffffffffffffff1673ffffffffffffffffffffffffffffffffffffffff16837fba8f27a7f85d193b2e0c15d54a1e1d5254b3c86afe31ab91987d39cff6df258c84600201546040518082815260200191505060405180910390a45050565b6000806000809054906101000a900460ff1615806105535750600160003373ffffffffffffffffffffffffffffffffffffffff1673ffffffffffffffffffffffffffffffffffffffff16815260200190815260200160002060009054906101000a900460ff165b151561055e57600080fd5b600360008154809291906001019190505590506060604051908101604052808673ffffffffffffffffffffffffffffffffffffffff1681526020018573ffffffffffffffffffffffffffffffffffffffff168152602001848152506004600083815260200190815260200160002060008201518160000160006101000a81548173ffffffffffffffffffffffffffffffffffffffff021916908373ffffffffffffffffffffffffffffffffffffffff16021790555060208201518160010160006101000a81548173ffffffffffffffffffffffffffffffffffffffff021916908373ffffffffffffffffffffffffffffffffffffffff160217905550604082015181600201559050508373ffffffffffffffffffffffffffffffffffffffff168573ffffffffffffffffffffffffffffffffffffffff16827f38ad22e5704952fc5eaf855fe6a8193abeeae5963626b72a552fe2584d053e4e866040518082815260200191505060405180910390a48091505093925050505600a165627a7a72305820783e4a9cdfcb1b3c9b7fd0338c47029794d0d8fa36c586eefa098cce719e6a6a0029",
  "source": "pragma solidity ^0.4.24;\r\n\r\nimport 'openzeppelin-solidity/contracts/token/ERC20/ERC20.sol';\r\nimport './TwoPhaseTransfers.sol';\r\n\r\n\r\n/**\r\n * @title MoratioriumTransfers\r\n * @dev The MoratioriumTransfers allows transfers to be confirmed only after a cooldown period.\r\n */\r\ncontract MoratoriumTransfers is TwoPhaseTransfers {\r\n\r\n    mapping(uint => uint) availableFrom;\r\n    uint public moratoriumPeriod;\r\n\r\n\r\n    constructor(uint _moratoriumPeriod, address[] _proposers, address[] _validators)\r\n        TwoPhaseTransfers(_proposers, _validators) public {\r\n        moratoriumPeriod = _moratoriumPeriod;\r\n    }\r\n\r\n    function proposeTransfer(ERC20 token, address to, uint value) public onlyProposer returns(uint) {\r\n        uint id = super.proposeTransfer(token, to, value);\r\n        availableFrom[id] = now + moratoriumPeriod;\r\n    }\r\n\r\n    function confirmTransfer(uint _transferId) public onlyValidator {\r\n        // TransferProposal storage proposal = transferProposals[_transferId];\r\n        require(now > availableFrom[_transferId]);\r\n        super.confirmTransfer(_transferId);\r\n    }\r\n\r\n}\r\n",
  "sourcePath": "C:\\Users\\tobog\\Documents\\GitHub\\charity\\contracts\\alice\\MoratoriumTransfers.sol",
  "compiler": {
    "name": "solc",
    "version": "0.4.26+commit.4563c3fc.Emscripten.clang"
  },
  "schemaVersion": "3.0.23",
  "updatedAt": "2020-04-20T01:51:34.135Z",
  "devdoc": {
    "methods": {},
    "title": "MoratioriumTransfers\r"
  },
  "userdoc": {
    "methods": {}
  }
}