{
  "contractName": "Privileged",
  "abi": [
    {
      "constant": true,
      "inputs": [],
      "name": "owner",
      "outputs": [
        {
          "name": "",
          "type": "address"
        }
      ],
      "payable": false,
      "stateMutability": "view",
      "type": "function"
    },
    {
      "anonymous": false,
      "inputs": [
        {
          "indexed": false,
          "name": "privilege",
          "type": "string"
        },
        {
          "indexed": true,
          "name": "previousOwner",
          "type": "address"
        },
        {
          "indexed": true,
          "name": "newOwner",
          "type": "address"
        }
      ],
      "name": "PrivilegeTransferred",
      "type": "event"
    },
    {
      "constant": false,
      "inputs": [
        {
          "name": "_privilegeName",
          "type": "string"
        },
        {
          "name": "_owner",
          "type": "address"
        },
        {
          "name": "_controller",
          "type": "address"
        }
      ],
      "name": "createPrivilege",
      "outputs": [],
      "payable": false,
      "stateMutability": "nonpayable",
      "type": "function"
    },
    {
      "constant": false,
      "inputs": [
        {
          "name": "_privilegeName",
          "type": "string"
        }
      ],
      "name": "revokePrivilege",
      "outputs": [],
      "payable": false,
      "stateMutability": "nonpayable",
      "type": "function"
    },
    {
      "constant": false,
      "inputs": [
        {
          "name": "_privilege",
          "type": "string"
        },
        {
          "name": "_newOwner",
          "type": "address"
        }
      ],
      "name": "transferPrivilege",
      "outputs": [],
      "payable": false,
      "stateMutability": "nonpayable",
      "type": "function"
    }
  ],
  "bytecode": "0x608060405234801561001057600080fd5b50610b83806100206000396000f300608060405260043610610062576000357c0100000000000000000000000000000000000000000000000000000000900463ffffffff16806345d4cf2b146100675780638ae4200a146101105780638da5cb5b14610179578063a7cd21ea146101d0575b600080fd5b34801561007357600080fd5b5061010e600480360381019080803590602001908201803590602001908080601f0160208091040260200160405190810160405280939291908181526020018383808284378201915050505050509192919290803573ffffffffffffffffffffffffffffffffffffffff169060200190929190803573ffffffffffffffffffffffffffffffffffffffff169060200190929190505050610259565b005b34801561011c57600080fd5b50610177600480360381019080803590602001908201803590602001908080601f016020809104026020016040519081016040528093929190818152602001838380828437820191505050505050919291929050505061052f565b005b34801561018557600080fd5b5061018e610892565b604051808273ffffffffffffffffffffffffffffffffffffffff1673ffffffffffffffffffffffffffffffffffffffff16815260200191505060405180910390f35b3480156101dc57600080fd5b50610257600480360381019080803590602001908201803590602001908080601f0160208091040260200160405190810160405280939291908181526020018383808284378201915050505050509192919290803573ffffffffffffffffffffffffffffffffffffffff1690602001909291905050506108b7565b005b600073ffffffffffffffffffffffffffffffffffffffff166001846040518082805190602001908083835b6020831015156102a95780518252602082019150602081019050602083039250610284565b6001836020036101000a038019825116818451168082178552505050505050905001915050908152602001604051809103902060000160009054906101000a900473ffffffffffffffffffffffffffffffffffffffff1673ffffffffffffffffffffffffffffffffffffffff1614151561032257600080fd5b60408051908101604052808373ffffffffffffffffffffffffffffffffffffffff1681526020018273ffffffffffffffffffffffffffffffffffffffff168152506001846040518082805190602001908083835b60208310151561039b5780518252602082019150602081019050602083039250610376565b6001836020036101000a038019825116818451168082178552505050505050905001915050908152602001604051809103902060008201518160000160006101000a81548173ffffffffffffffffffffffffffffffffffffffff021916908373ffffffffffffffffffffffffffffffffffffffff16021790555060208201518160010160006101000a81548173ffffffffffffffffffffffffffffffffffffffff021916908373ffffffffffffffffffffffffffffffffffffffff1602179055509050508173ffffffffffffffffffffffffffffffffffffffff16600073ffffffffffffffffffffffffffffffffffffffff167faabc91c2877621ea57f56ae624a16e39a420b278ab743f7a3a4816412f8628d3856040518080602001828103825283818151815260200191508051906020019080838360005b838110156104f05780820151818401526020810190506104d5565b50505050905090810190601f16801561051d5780820380516001836020036101000a031916815260200191505b509250505060405180910390a3505050565b6001816040518082805190602001908083835b6020831015156105675780518252602082019150602081019050602083039250610542565b6001836020036101000a038019825116818451168082178552505050505050905001915050908152602001604051809103902060010160009054906101000a900473ffffffffffffffffffffffffffffffffffffffff1673ffffffffffffffffffffffffffffffffffffffff163373ffffffffffffffffffffffffffffffffffffffff161415156105f757600080fd5b600073ffffffffffffffffffffffffffffffffffffffff166001826040518082805190602001908083835b6020831015156106475780518252602082019150602081019050602083039250610622565b6001836020036101000a038019825116818451168082178552505050505050905001915050908152602001604051809103902060000160009054906101000a900473ffffffffffffffffffffffffffffffffffffffff1673ffffffffffffffffffffffffffffffffffffffff167faabc91c2877621ea57f56ae624a16e39a420b278ab743f7a3a4816412f8628d3836040518080602001828103825283818151815260200191508051906020019080838360005b838110156107165780820151818401526020810190506106fb565b50505050905090810190601f1680156107435780820380516001836020036101000a031916815260200191505b509250505060405180910390a36040805190810160405280600073ffffffffffffffffffffffffffffffffffffffff168152602001600073ffffffffffffffffffffffffffffffffffffffff168152506001826040518082805190602001908083835b6020831015156107cb57805182526020820191506020810190506020830392506107a6565b6001836020036101000a038019825116818451168082178552505050505050905001915050908152602001604051809103902060008201518160000160006101000a81548173ffffffffffffffffffffffffffffffffffffffff021916908373ffffffffffffffffffffffffffffffffffffffff16021790555060208201518160010160006101000a81548173ffffffffffffffffffffffffffffffffffffffff021916908373ffffffffffffffffffffffffffffffffffffffff16021790555090505050565b6000809054906101000a900473ffffffffffffffffffffffffffffffffffffffff1681565b6001826040518082805190602001908083835b6020831015156108ef57805182526020820191506020810190506020830392506108ca565b6001836020036101000a038019825116818451168082178552505050505050905001915050908152602001604051809103902060010160009054906101000a900473ffffffffffffffffffffffffffffffffffffffff1673ffffffffffffffffffffffffffffffffffffffff163373ffffffffffffffffffffffffffffffffffffffff1614151561097f57600080fd5b600073ffffffffffffffffffffffffffffffffffffffff168173ffffffffffffffffffffffffffffffffffffffff16141515156109bb57600080fd5b806001836040518082805190602001908083835b6020831015156109f457805182526020820191506020810190506020830392506109cf565b6001836020036101000a038019825116818451168082178552505050505050905001915050908152602001604051809103902060000160006101000a81548173ffffffffffffffffffffffffffffffffffffffff021916908373ffffffffffffffffffffffffffffffffffffffff1602179055508073ffffffffffffffffffffffffffffffffffffffff166000809054906101000a900473ffffffffffffffffffffffffffffffffffffffff1673ffffffffffffffffffffffffffffffffffffffff167faabc91c2877621ea57f56ae624a16e39a420b278ab743f7a3a4816412f8628d3846040518080602001828103825283818151815260200191508051906020019080838360005b83811015610b19578082015181840152602081019050610afe565b50505050905090810190601f168015610b465780820380516001836020036101000a031916815260200191505b509250505060405180910390a350505600a165627a7a7230582017e9bcab244944dbf90429c5c9cc8b899f9f2dff66023afae572630beaffad360029",
  "source": "pragma solidity ^0.4.24;\r\n\r\n\r\n/**\r\n * @title Privileged\r\n * @dev The Privileged defines a set of privileges for a smart contract\r\n */\r\ncontract Privileged {\r\n    address public owner;\r\n\r\n\r\n    event PrivilegeTransferred(string privilege, address indexed previousOwner, address indexed newOwner);\r\n\r\n    struct Privilege {\r\n      address owner;\r\n      address controller;\r\n    }\r\n\r\n    /**\r\n     * @dev Throws if called by any account other than the privilege owner.\r\n     */\r\n    modifier only(string _privilege) {\r\n        require(msg.sender == privileges[_privilege].owner);\r\n        _;\r\n    }\r\n\r\n\r\n    mapping(string => Privilege) privileges;\r\n\r\n\r\n    function createPrivilege(string _privilegeName, address _owner, address _controller) public {\r\n        require(privileges[_privilegeName].owner == address(0));\r\n        privileges[_privilegeName] = Privilege(_owner, _controller);\r\n        emit PrivilegeTransferred(_privilegeName, address(0), _owner);\r\n    }\r\n\r\n\r\n    function revokePrivilege(string _privilegeName) public {\r\n        require(msg.sender == privileges[_privilegeName].controller);\r\n        emit PrivilegeTransferred(_privilegeName, privileges[_privilegeName].owner, address(0));\r\n        privileges[_privilegeName] = Privilege(0, 0);\r\n    }\r\n\r\n\r\n    /**\r\n     * @dev Allows the privilege controller to transfer ownership of a privilege to another account.\r\n     * @param _newOwner The address to transfer privilege ownership to.\r\n     */\r\n    function transferPrivilege(string _privilege, address _newOwner) public {\r\n        require(msg.sender == privileges[_privilege].controller);\r\n        require(_newOwner != address(0));\r\n        privileges[_privilege].owner = _newOwner;\r\n        emit PrivilegeTransferred(_privilege, owner, _newOwner);\r\n    }\r\n\r\n}\r\n",
  "sourcePath": "C:\\Users\\tobog\\Documents\\GitHub\\charity\\contracts\\alice\\Privileged.sol",
  "compiler": {
    "name": "solc",
    "version": "0.4.26+commit.4563c3fc.Emscripten.clang"
  },
  "schemaVersion": "3.0.23",
  "updatedAt": "2020-04-20T02:16:38.663Z",
  "devdoc": {
    "methods": {
      "transferPrivilege(string,address)": {
        "details": "Allows the privilege controller to transfer ownership of a privilege to another account.\r",
        "params": {
          "_newOwner": "The address to transfer privilege ownership to.\r"
        }
      }
    },
    "title": "Privileged\r"
  },
  "userdoc": {
    "methods": {}
  }
}