{
  "contractName": "Project",
  "abi": [
    {
      "constant": true,
      "inputs": [],
      "name": "name",
      "outputs": [
        {
          "name": "",
          "type": "string"
        }
      ],
      "payable": false,
      "stateMutability": "view",
      "type": "function"
    },
    {
      "constant": true,
      "inputs": [],
      "name": "total",
      "outputs": [
        {
          "name": "",
          "type": "uint256"
        }
      ],
      "payable": false,
      "stateMutability": "view",
      "type": "function"
    },
    {
      "constant": true,
      "inputs": [],
      "name": "validatorAddress",
      "outputs": [
        {
          "name": "",
          "type": "address"
        }
      ],
      "payable": false,
      "stateMutability": "view",
      "type": "function"
    },
    {
      "constant": true,
      "inputs": [
        {
          "name": "",
          "type": "bytes32"
        }
      ],
      "name": "isClaimValidated",
      "outputs": [
        {
          "name": "",
          "type": "bool"
        }
      ],
      "payable": false,
      "stateMutability": "view",
      "type": "function"
    },
    {
      "constant": true,
      "inputs": [],
      "name": "upfrontPaymentPercentage",
      "outputs": [
        {
          "name": "",
          "type": "uint8"
        }
      ],
      "payable": false,
      "stateMutability": "view",
      "type": "function"
    },
    {
      "constant": false,
      "inputs": [],
      "name": "renounceOwnership",
      "outputs": [],
      "payable": false,
      "stateMutability": "nonpayable",
      "type": "function"
    },
    {
      "constant": true,
      "inputs": [],
      "name": "owner",
      "outputs": [
        {
          "name": "",
          "type": "address"
        }
      ],
      "payable": false,
      "stateMutability": "view",
      "type": "function"
    },
    {
      "constant": true,
      "inputs": [],
      "name": "IMPACT_REGISTRY_ADDRESS",
      "outputs": [
        {
          "name": "",
          "type": "address"
        }
      ],
      "payable": false,
      "stateMutability": "view",
      "type": "function"
    },
    {
      "constant": true,
      "inputs": [],
      "name": "beneficiaryAddress",
      "outputs": [
        {
          "name": "",
          "type": "address"
        }
      ],
      "payable": false,
      "stateMutability": "view",
      "type": "function"
    },
    {
      "constant": false,
      "inputs": [
        {
          "name": "_newOwner",
          "type": "address"
        }
      ],
      "name": "transferOwnership",
      "outputs": [],
      "payable": false,
      "stateMutability": "nonpayable",
      "type": "function"
    },
    {
      "inputs": [
        {
          "name": "_name",
          "type": "string"
        },
        {
          "name": "_upfrontPaymentPercentage",
          "type": "uint8"
        }
      ],
      "payable": false,
      "stateMutability": "nonpayable",
      "type": "constructor"
    },
    {
      "anonymous": false,
      "inputs": [
        {
          "indexed": false,
          "name": "claimId",
          "type": "bytes32"
        },
        {
          "indexed": false,
          "name": "value",
          "type": "uint256"
        }
      ],
      "name": "OutcomeEvent",
      "type": "event"
    },
    {
      "anonymous": false,
      "inputs": [
        {
          "indexed": true,
          "name": "from",
          "type": "address"
        },
        {
          "indexed": false,
          "name": "value",
          "type": "uint256"
        }
      ],
      "name": "DonationEvent",
      "type": "event"
    },
    {
      "anonymous": false,
      "inputs": [
        {
          "indexed": true,
          "name": "previousOwner",
          "type": "address"
        }
      ],
      "name": "OwnershipRenounced",
      "type": "event"
    },
    {
      "anonymous": false,
      "inputs": [
        {
          "indexed": true,
          "name": "previousOwner",
          "type": "address"
        },
        {
          "indexed": true,
          "name": "newOwner",
          "type": "address"
        }
      ],
      "name": "OwnershipTransferred",
      "type": "event"
    },
    {
      "constant": false,
      "inputs": [
        {
          "name": "_validatorAddress",
          "type": "address"
        }
      ],
      "name": "setValidator",
      "outputs": [],
      "payable": false,
      "stateMutability": "nonpayable",
      "type": "function"
    },
    {
      "constant": false,
      "inputs": [
        {
          "name": "_beneficiaryAddress",
          "type": "address"
        }
      ],
      "name": "setBeneficiary",
      "outputs": [],
      "payable": false,
      "stateMutability": "nonpayable",
      "type": "function"
    },
    {
      "constant": false,
      "inputs": [
        {
          "name": "impactRegistryAddress",
          "type": "address"
        }
      ],
      "name": "setImpactRegistry",
      "outputs": [],
      "payable": false,
      "stateMutability": "nonpayable",
      "type": "function"
    },
    {
      "constant": false,
      "inputs": [
        {
          "name": "_token",
          "type": "address"
        }
      ],
      "name": "setToken",
      "outputs": [],
      "payable": false,
      "stateMutability": "nonpayable",
      "type": "function"
    },
    {
      "constant": false,
      "inputs": [
        {
          "name": "_from",
          "type": "address"
        },
        {
          "name": "_amount",
          "type": "uint256"
        }
      ],
      "name": "notify",
      "outputs": [],
      "payable": false,
      "stateMutability": "nonpayable",
      "type": "function"
    },
    {
      "constant": false,
      "inputs": [
        {
          "name": "_amount",
          "type": "uint256"
        }
      ],
      "name": "donateFromWallet",
      "outputs": [],
      "payable": false,
      "stateMutability": "nonpayable",
      "type": "function"
    },
    {
      "constant": false,
      "inputs": [
        {
          "name": "_value",
          "type": "uint256"
        }
      ],
      "name": "fund",
      "outputs": [],
      "payable": false,
      "stateMutability": "nonpayable",
      "type": "function"
    },
    {
      "constant": false,
      "inputs": [
        {
          "name": "_claimId",
          "type": "bytes32"
        },
        {
          "name": "_value",
          "type": "uint256"
        }
      ],
      "name": "validateOutcome",
      "outputs": [],
      "payable": false,
      "stateMutability": "nonpayable",
      "type": "function"
    },
    {
      "constant": false,
      "inputs": [
        {
          "name": "account",
          "type": "address"
        }
      ],
      "name": "payBack",
      "outputs": [],
      "payable": false,
      "stateMutability": "nonpayable",
      "type": "function"
    },
    {
      "constant": true,
      "inputs": [
        {
          "name": "donor",
          "type": "address"
        }
      ],
      "name": "getBalance",
      "outputs": [
        {
          "name": "",
          "type": "uint256"
        }
      ],
      "payable": false,
      "stateMutability": "view",
      "type": "function"
    },
    {
      "constant": true,
      "inputs": [],
      "name": "getToken",
      "outputs": [
        {
          "name": "",
          "type": "address"
        }
      ],
      "payable": false,
      "stateMutability": "view",
      "type": "function"
    }
  ],
  "bytecode": "0x60806040523480156200001157600080fd5b5060405162001a4038038062001a408339810180604052810190808051820192919060200180519060200190929190505050336000806101000a81548173ffffffffffffffffffffffffffffffffffffffff021916908373ffffffffffffffffffffffffffffffffffffffff16021790555060008160ff16101580156200009b575060648160ff16105b1515620000a757600080fd5b8160019080519060200190620000bf929190620000e3565b5080600460146101000a81548160ff021916908360ff160217905550505062000192565b828054600181600116156101000203166002900490600052602060002090601f016020900481019282601f106200012657805160ff191683800117855562000157565b8280016001018555821562000157579182015b828111156200015657825182559160200191906001019062000139565b5b5090506200016691906200016a565b5090565b6200018f91905b808211156200018b57600081600090555060010162000171565b5090565b90565b61189e80620001a26000396000f30060806040526004361061011d576000357c0100000000000000000000000000000000000000000000000000000000900463ffffffff16806306fdde03146101225780631327d3d8146101b2578063144fa6d7146101f55780631c31f7101461023857806321df0da71461027b57806325fda176146102d25780632ddbd13a1461031f5780633fe4676e1461034a5780635102ad69146103a15780635588306a146103e4578063605000641461042d5780636293fd1e1461045e578063715018a6146104a15780638da5cb5b146104b8578063a94385a01461050f578063abaabcf01461053c578063ca1d209d14610577578063d81ad101146105a4578063d9c4870e146105fb578063f2fde38b14610652578063f8b2cb4f14610695575b600080fd5b34801561012e57600080fd5b506101376106ec565b6040518080602001828103825283818151815260200191508051906020019080838360005b8381101561017757808201518184015260208101905061015c565b50505050905090810190601f1680156101a45780820380516001836020036101000a031916815260200191505b509250505060405180910390f35b3480156101be57600080fd5b506101f3600480360381019080803573ffffffffffffffffffffffffffffffffffffffff16906020019092919050505061078a565b005b34801561020157600080fd5b50610236600480360381019080803573ffffffffffffffffffffffffffffffffffffffff169060200190929190505050610829565b005b34801561024457600080fd5b50610279600480360381019080803573ffffffffffffffffffffffffffffffffffffffff1690602001909291905050506108c8565b005b34801561028757600080fd5b50610290610967565b604051808273ffffffffffffffffffffffffffffffffffffffff1673ffffffffffffffffffffffffffffffffffffffff16815260200191505060405180910390f35b3480156102de57600080fd5b5061031d600480360381019080803573ffffffffffffffffffffffffffffffffffffffff16906020019092919080359060200190929190505050610991565b005b34801561032b57600080fd5b50610334610a2f565b6040518082815260200191505060405180910390f35b34801561035657600080fd5b5061035f610a35565b604051808273ffffffffffffffffffffffffffffffffffffffff1673ffffffffffffffffffffffffffffffffffffffff16815260200191505060405180910390f35b3480156103ad57600080fd5b506103e2600480360381019080803573ffffffffffffffffffffffffffffffffffffffff169060200190929190505050610a5b565b005b3480156103f057600080fd5b506104136004803603810190808035600019169060200190929190505050610afa565b604051808215151515815260200191505060405180910390f35b34801561043957600080fd5b50610442610b1a565b604051808260ff1660ff16815260200191505060405180910390f35b34801561046a57600080fd5b5061049f600480360381019080803573ffffffffffffffffffffffffffffffffffffffff169060200190929190505050610b2d565b005b3480156104ad57600080fd5b506104b6610d79565b005b3480156104c457600080fd5b506104cd610e7b565b604051808273ffffffffffffffffffffffffffffffffffffffff1673ffffffffffffffffffffffffffffffffffffffff16815260200191505060405180910390f35b34801561051b57600080fd5b5061053a60048036038101908080359060200190929190505050610ea0565b005b34801561054857600080fd5b50610575600480360381019080803560001916906020019092919080359060200190929190505050610fc7565b005b34801561058357600080fd5b506105a260048036038101908080359060200190929190505050611203565b005b3480156105b057600080fd5b506105b961127c565b604051808273ffffffffffffffffffffffffffffffffffffffff1673ffffffffffffffffffffffffffffffffffffffff16815260200191505060405180910390f35b34801561060757600080fd5b506106106112a2565b604051808273ffffffffffffffffffffffffffffffffffffffff1673ffffffffffffffffffffffffffffffffffffffff16815260200191505060405180910390f35b34801561065e57600080fd5b50610693600480360381019080803573ffffffffffffffffffffffffffffffffffffffff1690602001909291905050506112c8565b005b3480156106a157600080fd5b506106d6600480360381019080803573ffffffffffffffffffffffffffffffffffffffff16906020019092919050505061132f565b6040518082815260200191505060405180910390f35b60018054600181600116156101000203166002900480601f0160208091040260200160405190810160405280929190818152602001828054600181600116156101000203166002900480156107825780601f1061075757610100808354040283529160200191610782565b820191906000526020600020905b81548152906001019060200180831161076557829003601f168201915b505050505081565b6000809054906101000a900473ffffffffffffffffffffffffffffffffffffffff1673ffffffffffffffffffffffffffffffffffffffff163373ffffffffffffffffffffffffffffffffffffffff161415156107e557600080fd5b80600260006101000a81548173ffffffffffffffffffffffffffffffffffffffff021916908373ffffffffffffffffffffffffffffffffffffffff16021790555050565b6000809054906101000a900473ffffffffffffffffffffffffffffffffffffffff1673ffffffffffffffffffffffffffffffffffffffff163373ffffffffffffffffffffffffffffffffffffffff1614151561088457600080fd5b80600860006101000a81548173ffffffffffffffffffffffffffffffffffffffff021916908373ffffffffffffffffffffffffffffffffffffffff16021790555050565b6000809054906101000a900473ffffffffffffffffffffffffffffffffffffffff1673ffffffffffffffffffffffffffffffffffffffff163373ffffffffffffffffffffffffffffffffffffffff1614151561092357600080fd5b80600360006101000a81548173ffffffffffffffffffffffffffffffffffffffff021916908373ffffffffffffffffffffffffffffffffffffffff16021790555050565b6000600860009054906101000a900473ffffffffffffffffffffffffffffffffffffffff16905090565b6000809054906101000a900473ffffffffffffffffffffffffffffffffffffffff1673ffffffffffffffffffffffffffffffffffffffff163373ffffffffffffffffffffffffffffffffffffffff161415156109ec57600080fd5b60008273ffffffffffffffffffffffffffffffffffffffff1614151515610a1257600080fd5b600081111515610a2157600080fd5b610a2b8282611430565b5050565b60075481565b600260009054906101000a900473ffffffffffffffffffffffffffffffffffffffff1681565b6000809054906101000a900473ffffffffffffffffffffffffffffffffffffffff1673ffffffffffffffffffffffffffffffffffffffff163373ffffffffffffffffffffffffffffffffffffffff16141515610ab657600080fd5b80600460006101000a81548173ffffffffffffffffffffffffffffffffffffffff021916908373ffffffffffffffffffffffffffffffffffffffff16021790555050565b60066020528060005260406000206000915054906101000a900460ff1681565b600460149054906101000a900460ff1681565b60008060009054906101000a900473ffffffffffffffffffffffffffffffffffffffff1673ffffffffffffffffffffffffffffffffffffffff163373ffffffffffffffffffffffffffffffffffffffff16141515610b8a57600080fd5b610b938261132f565b90506000811115610d7557610ba6610967565b73ffffffffffffffffffffffffffffffffffffffff1663a9059cbb83836040518363ffffffff167c0100000000000000000000000000000000000000000000000000000000028152600401808373ffffffffffffffffffffffffffffffffffffffff1673ffffffffffffffffffffffffffffffffffffffff16815260200182815260200192505050602060405180830381600087803b158015610c4857600080fd5b505af1158015610c5c573d6000803e3d6000fd5b505050506040513d6020811015610c7257600080fd5b810190808051906020019092919050505050610c998160075461169e90919063ffffffff16565b600781905550600460009054906101000a900473ffffffffffffffffffffffffffffffffffffffff1673ffffffffffffffffffffffffffffffffffffffff16636293fd1e836040518263ffffffff167c0100000000000000000000000000000000000000000000000000000000028152600401808273ffffffffffffffffffffffffffffffffffffffff1673ffffffffffffffffffffffffffffffffffffffff168152602001915050600060405180830381600087803b158015610d5c57600080fd5b505af1158015610d70573d6000803e3d6000fd5b505050505b5050565b6000809054906101000a900473ffffffffffffffffffffffffffffffffffffffff1673ffffffffffffffffffffffffffffffffffffffff163373ffffffffffffffffffffffffffffffffffffffff16141515610dd457600080fd5b6000809054906101000a900473ffffffffffffffffffffffffffffffffffffffff1673ffffffffffffffffffffffffffffffffffffffff167ff8df31144d9c2f0f6b59d69b8b98abd5459d07f2742c4df920b25aae33c6482060405160405180910390a260008060006101000a81548173ffffffffffffffffffffffffffffffffffffffff021916908373ffffffffffffffffffffffffffffffffffffffff160217905550565b6000809054906101000a900473ffffffffffffffffffffffffffffffffffffffff1681565b610ea8610967565b73ffffffffffffffffffffffffffffffffffffffff166323b872dd3330846040518463ffffffff167c0100000000000000000000000000000000000000000000000000000000028152600401808473ffffffffffffffffffffffffffffffffffffffff1673ffffffffffffffffffffffffffffffffffffffff1681526020018373ffffffffffffffffffffffffffffffffffffffff1673ffffffffffffffffffffffffffffffffffffffff1681526020018281526020019350505050602060405180830381600087803b158015610f7e57600080fd5b505af1158015610f92573d6000803e3d6000fd5b505050506040513d6020811015610fa857600080fd5b810190808051906020019092919050505050610fc43382611430565b50565b600260009054906101000a900473ffffffffffffffffffffffffffffffffffffffff1673ffffffffffffffffffffffffffffffffffffffff163373ffffffffffffffffffffffffffffffffffffffff1614151561102357600080fd5b61102b610967565b73ffffffffffffffffffffffffffffffffffffffff1663a9059cbb600360009054906101000a900473ffffffffffffffffffffffffffffffffffffffff16836040518363ffffffff167c0100000000000000000000000000000000000000000000000000000000028152600401808373ffffffffffffffffffffffffffffffffffffffff1673ffffffffffffffffffffffffffffffffffffffff16815260200182815260200192505050602060405180830381600087803b1580156110ef57600080fd5b505af1158015611103573d6000803e3d6000fd5b505050506040513d602081101561111957600080fd5b8101908080519060200190929190505050506111408160075461169e90919063ffffffff16565b600781905550600460009054906101000a900473ffffffffffffffffffffffffffffffffffffffff1673ffffffffffffffffffffffffffffffffffffffff166356ffeee483836040518363ffffffff167c010000000000000000000000000000000000000000000000000000000002815260040180836000191660001916815260200182815260200192505050600060405180830381600087803b1580156111e757600080fd5b505af11580156111fb573d6000803e3d6000fd5b505050505050565b6000809054906101000a900473ffffffffffffffffffffffffffffffffffffffff1673ffffffffffffffffffffffffffffffffffffffff163373ffffffffffffffffffffffffffffffffffffffff1614151561125e57600080fd5b611273816007546116b790919063ffffffff16565b60078190555050565b600460009054906101000a900473ffffffffffffffffffffffffffffffffffffffff1681565b600360009054906101000a900473ffffffffffffffffffffffffffffffffffffffff1681565b6000809054906101000a900473ffffffffffffffffffffffffffffffffffffffff1673ffffffffffffffffffffffffffffffffffffffff163373ffffffffffffffffffffffffffffffffffffffff1614151561132357600080fd5b61132c816116d3565b50565b6000600460009054906101000a900473ffffffffffffffffffffffffffffffffffffffff1673ffffffffffffffffffffffffffffffffffffffff1663f8b2cb4f836040518263ffffffff167c0100000000000000000000000000000000000000000000000000000000028152600401808273ffffffffffffffffffffffffffffffffffffffff1673ffffffffffffffffffffffffffffffffffffffff168152602001915050602060405180830381600087803b1580156113ee57600080fd5b505af1158015611402573d6000803e3d6000fd5b505050506040513d602081101561141857600080fd5b81019080805190602001909291905050509050919050565b60008061143c836117cd565b91509150600082111561155257611451610967565b73ffffffffffffffffffffffffffffffffffffffff1663a9059cbb600360009054906101000a900473ffffffffffffffffffffffffffffffffffffffff16846040518363ffffffff167c0100000000000000000000000000000000000000000000000000000000028152600401808373ffffffffffffffffffffffffffffffffffffffff1673ffffffffffffffffffffffffffffffffffffffff16815260200182815260200192505050602060405180830381600087803b15801561151557600080fd5b505af1158015611529573d6000803e3d6000fd5b505050506040513d602081101561153f57600080fd5b8101908080519060200190929190505050505b611567816007546116b790919063ffffffff16565b600781905550600460009054906101000a900473ffffffffffffffffffffffffffffffffffffffff1673ffffffffffffffffffffffffffffffffffffffff16633c49dde485836040518363ffffffff167c0100000000000000000000000000000000000000000000000000000000028152600401808373ffffffffffffffffffffffffffffffffffffffff1673ffffffffffffffffffffffffffffffffffffffff16815260200182815260200192505050600060405180830381600087803b15801561163257600080fd5b505af1158015611646573d6000803e3d6000fd5b505050508373ffffffffffffffffffffffffffffffffffffffff167f8b7fe5be5699654fd637d2250cb0d47e88205730710745e78e9d8bcaf8aad8f1846040518082815260200191505060405180910390a250505050565b60008282111515156116ac57fe5b818303905092915050565b600081830190508281101515156116ca57fe5b80905092915050565b600073ffffffffffffffffffffffffffffffffffffffff168173ffffffffffffffffffffffffffffffffffffffff161415151561170f57600080fd5b8073ffffffffffffffffffffffffffffffffffffffff166000809054906101000a900473ffffffffffffffffffffffffffffffffffffffff1673ffffffffffffffffffffffffffffffffffffffff167f8be0079c531659141344cd1fd0a4f28419497f9722a3daafe3b4186f6b6457e060405160405180910390a3806000806101000a81548173ffffffffffffffffffffffffffffffffffffffff021916908373ffffffffffffffffffffffffffffffffffffffff16021790555050565b60008061180860646117fa600460149054906101000a900460ff1660ff168661182490919063ffffffff16565b61185c90919063ffffffff16565b915061181d828461169e90919063ffffffff16565b9050915091565b6000808314156118375760009050611856565b818302905081838281151561184857fe5b0414151561185257fe5b8090505b92915050565b6000818381151561186957fe5b049050929150505600a165627a7a723058203c1b3a9b3f318144eec267b567c315fd81c3e14b673317df76f3b4fd6b5362c90029",
  "source": "pragma solidity ^0.4.24;\r\n\r\nimport \"openzeppelin-solidity/contracts/ownership/Ownable.sol\";\r\nimport \"openzeppelin-solidity/contracts/math/SafeMath.sol\";\r\nimport \"openzeppelin-solidity/contracts/token/ERC20/ERC20.sol\";\r\n\r\nimport \"./impact/ImpactRegistry.sol\";\r\nimport \"../ContractProvider.sol\";\r\nimport \"./StringUtils.sol\";\r\n\r\n\r\ncontract Project is Ownable {\r\n    using SafeMath for uint256;\r\n\r\n    string public name;\r\n    address public validatorAddress;\r\n    address public beneficiaryAddress;\r\n    address public IMPACT_REGISTRY_ADDRESS;\r\n    // percentage of funds to transfer to a charity immediately\r\n    uint8 public upfrontPaymentPercentage;\r\n\r\n    /* iterate over donations */\r\n    address[] accountIndex;\r\n\r\n    mapping(bytes32 => bool) public isClaimValidated;\r\n\r\n    /* Total amount of all donations */\r\n    uint256 public total;\r\n\r\n    ERC20 private token;\r\n\r\n    event OutcomeEvent(bytes32 claimId, uint256 value);\r\n    event DonationEvent(address indexed from, uint256 value);\r\n\r\n    constructor(string _name, uint8 _upfrontPaymentPercentage) public {\r\n        require(\r\n            _upfrontPaymentPercentage >= 0 && _upfrontPaymentPercentage < 100\r\n        );\r\n        name = _name;\r\n        upfrontPaymentPercentage = _upfrontPaymentPercentage;\r\n    }\r\n\r\n    function setValidator(address _validatorAddress) public onlyOwner {\r\n        validatorAddress = _validatorAddress;\r\n    }\r\n\r\n    function setBeneficiary(address _beneficiaryAddress) public onlyOwner {\r\n        beneficiaryAddress = _beneficiaryAddress;\r\n    }\r\n\r\n    function setImpactRegistry(address impactRegistryAddress) public onlyOwner {\r\n        IMPACT_REGISTRY_ADDRESS = impactRegistryAddress;\r\n    }\r\n\r\n    function setToken(ERC20 _token) public onlyOwner {\r\n        token = _token;\r\n    }\r\n\r\n    function notify(address _from, uint256 _amount) public onlyOwner {\r\n        require(_from != 0x0);\r\n        require(_amount > 0);\r\n        registerDonation(_from, _amount);\r\n    }\r\n\r\n    function registerDonation(address _from, uint256 _amount) internal {\r\n        (uint256 upfront, uint256 remainder) = calculateUpfrontSplit(_amount);\r\n        if (upfront > 0) {\r\n            getToken().transfer(beneficiaryAddress, upfront);\r\n        }\r\n        total = total.add(remainder);\r\n        ImpactRegistry(IMPACT_REGISTRY_ADDRESS).registerDonation(\r\n            _from,\r\n            remainder\r\n        );\r\n\r\n        emit DonationEvent(_from, _amount);\r\n    }\r\n\r\n    function donateFromWallet(uint256 _amount) public {\r\n        getToken().transferFrom(msg.sender, address(this), _amount);\r\n        registerDonation(msg.sender, _amount);\r\n    }\r\n\r\n    function fund(uint256 _value) public onlyOwner {\r\n        total = total.add(_value);\r\n    }\r\n\r\n    function validateOutcome(bytes32 _claimId, uint256 _value) public {\r\n        require(msg.sender == validatorAddress);\r\n        getToken().transfer(beneficiaryAddress, _value);\r\n        total = total.sub(_value);\r\n\r\n        ImpactRegistry(IMPACT_REGISTRY_ADDRESS).registerOutcome(\r\n            _claimId,\r\n            _value\r\n        );\r\n    }\r\n\r\n    function payBack(address account) public onlyOwner {\r\n        uint256 balance = getBalance(account);\r\n        if (balance > 0) {\r\n            getToken().transfer(account, balance);\r\n            total = total.sub(balance);\r\n            ImpactRegistry(IMPACT_REGISTRY_ADDRESS).payBack(account);\r\n        }\r\n    }\r\n\r\n    function getBalance(address donor) public view returns (uint256) {\r\n        return ImpactRegistry(IMPACT_REGISTRY_ADDRESS).getBalance(donor);\r\n    }\r\n\r\n    function getToken() public view returns (ERC20) {\r\n        return token;\r\n    }\r\n\r\n    function calculateUpfrontSplit(uint256 _amount)\r\n        private\r\n        view\r\n        returns (uint256 upfront, uint256 remainder)\r\n    {\r\n        upfront = _amount.mul(upfrontPaymentPercentage).div(100);\r\n        remainder = _amount.sub(upfront);\r\n    }\r\n}\r\n",
  "sourcePath": "C:\\Users\\tobog\\Documents\\GitHub\\charity\\contracts\\alice\\Project.sol",
  "compiler": {
    "name": "solc",
    "version": "0.4.26+commit.4563c3fc.Emscripten.clang"
  },
  "schemaVersion": "3.0.23",
  "updatedAt": "2020-04-20T16:01:03.746Z",
  "devdoc": {
    "methods": {
      "renounceOwnership()": {
        "details": "Allows the current owner to relinquish control of the contract."
      },
      "transferOwnership(address)": {
        "details": "Allows the current owner to transfer control of the contract to a newOwner.",
        "params": {
          "_newOwner": "The address to transfer ownership to."
        }
      }
    }
  },
  "userdoc": {
    "methods": {
      "renounceOwnership()": {
        "notice": "Renouncing to ownership will leave the contract without an owner. It will not be possible to call the functions with the `onlyOwner` modifier anymore."
      }
    }
  }
}