{
  "contractName": "TwoPhaseTransfers",
  "abi": [
    {
      "inputs": [
        {
          "name": "_proposers",
          "type": "address[]"
        },
        {
          "name": "_validators",
          "type": "address[]"
        }
      ],
      "payable": false,
      "stateMutability": "nonpayable",
      "type": "constructor"
    },
    {
      "anonymous": false,
      "inputs": [
        {
          "indexed": true,
          "name": "id",
          "type": "uint256"
        },
        {
          "indexed": true,
          "name": "token",
          "type": "address"
        },
        {
          "indexed": true,
          "name": "to",
          "type": "address"
        },
        {
          "indexed": false,
          "name": "value",
          "type": "uint256"
        }
      ],
      "name": "TransferProposed",
      "type": "event"
    },
    {
      "anonymous": false,
      "inputs": [
        {
          "indexed": true,
          "name": "id",
          "type": "uint256"
        },
        {
          "indexed": true,
          "name": "token",
          "type": "address"
        },
        {
          "indexed": true,
          "name": "to",
          "type": "address"
        },
        {
          "indexed": false,
          "name": "value",
          "type": "uint256"
        }
      ],
      "name": "TransferConfirmed",
      "type": "event"
    },
    {
      "constant": false,
      "inputs": [
        {
          "name": "token",
          "type": "address"
        },
        {
          "name": "to",
          "type": "address"
        },
        {
          "name": "value",
          "type": "uint256"
        }
      ],
      "name": "proposeTransfer",
      "outputs": [
        {
          "name": "",
          "type": "uint256"
        }
      ],
      "payable": false,
      "stateMutability": "nonpayable",
      "type": "function"
    },
    {
      "constant": false,
      "inputs": [
        {
          "name": "_transferId",
          "type": "uint256"
        }
      ],
      "name": "confirmTransfer",
      "outputs": [],
      "payable": false,
      "stateMutability": "nonpayable",
      "type": "function"
    }
  ],
  "bytecode": "0x6080604052600160035534801561001557600080fd5b5060405161073e38038061073e83398101806040528101908080518201929190602001805182019291905050506000806000845111156100f35760016000806101000a81548160ff021916908315150217905550600091505b83518210156100f2576001806000868581518110151561008a57fe5b9060200190602002015173ffffffffffffffffffffffffffffffffffffffff1673ffffffffffffffffffffffffffffffffffffffff16815260200190815260200160002060006101000a81548160ff021916908315150217905550818060010192505061006e565b5b6000835111156101a3576001600060016101000a81548160ff021916908315150217905550600090505b82518110156101a257600160026000858481518110151561013a57fe5b9060200190602002015173ffffffffffffffffffffffffffffffffffffffff1673ffffffffffffffffffffffffffffffffffffffff16815260200190815260200160002060006101000a81548160ff021916908315150217905550808060010191505061011d565b5b50505050610588806101b66000396000f30060806040526004361061004c576000357c0100000000000000000000000000000000000000000000000000000000900463ffffffff1680632c48e7db1461005157806364a8a0a01461007e575b600080fd5b34801561005d57600080fd5b5061007c600480360381019080803590602001909291905050506100ff565b005b34801561008a57600080fd5b506100e9600480360381019080803573ffffffffffffffffffffffffffffffffffffffff169060200190929190803573ffffffffffffffffffffffffffffffffffffffff16906020019092919080359060200190929190505050610370565b6040518082815260200191505060405180910390f35b60008060019054906101000a900460ff1615806101655750600260003373ffffffffffffffffffffffffffffffffffffffff1673ffffffffffffffffffffffffffffffffffffffff16815260200190815260200160002060009054906101000a900460ff165b151561017057600080fd5b6004600083815260200190815260200160002090508060000160009054906101000a900473ffffffffffffffffffffffffffffffffffffffff1673ffffffffffffffffffffffffffffffffffffffff1663a9059cbb8260010160009054906101000a900473ffffffffffffffffffffffffffffffffffffffff1683600201546040518363ffffffff167c0100000000000000000000000000000000000000000000000000000000028152600401808373ffffffffffffffffffffffffffffffffffffffff1673ffffffffffffffffffffffffffffffffffffffff16815260200182815260200192505050602060405180830381600087803b15801561027457600080fd5b505af1158015610288573d6000803e3d6000fd5b505050506040513d602081101561029e57600080fd5b810190808051906020019092919050505015156102ba57600080fd5b8060010160009054906101000a900473ffffffffffffffffffffffffffffffffffffffff1673ffffffffffffffffffffffffffffffffffffffff168160000160009054906101000a900473ffffffffffffffffffffffffffffffffffffffff1673ffffffffffffffffffffffffffffffffffffffff16837fba8f27a7f85d193b2e0c15d54a1e1d5254b3c86afe31ab91987d39cff6df258c84600201546040518082815260200191505060405180910390a45050565b6000806000809054906101000a900460ff1615806103d75750600160003373ffffffffffffffffffffffffffffffffffffffff1673ffffffffffffffffffffffffffffffffffffffff16815260200190815260200160002060009054906101000a900460ff165b15156103e257600080fd5b600360008154809291906001019190505590506060604051908101604052808673ffffffffffffffffffffffffffffffffffffffff1681526020018573ffffffffffffffffffffffffffffffffffffffff168152602001848152506004600083815260200190815260200160002060008201518160000160006101000a81548173ffffffffffffffffffffffffffffffffffffffff021916908373ffffffffffffffffffffffffffffffffffffffff16021790555060208201518160010160006101000a81548173ffffffffffffffffffffffffffffffffffffffff021916908373ffffffffffffffffffffffffffffffffffffffff160217905550604082015181600201559050508373ffffffffffffffffffffffffffffffffffffffff168573ffffffffffffffffffffffffffffffffffffffff16827f38ad22e5704952fc5eaf855fe6a8193abeeae5963626b72a552fe2584d053e4e866040518082815260200191505060405180910390a48091505093925050505600a165627a7a72305820919d9c4ae6dbdd6e0d7a8231c69e965de2bf8c54678f0f48223ee74f78d4de090029",
  "source": "pragma solidity ^0.4.11;\r\n\r\nimport 'openzeppelin-solidity/contracts/token/ERC20/ERC20.sol';\r\n\r\n\r\n/**\r\n * @title TwoPhaseTransfers\r\n * @dev The TwoPhaseTransfers add an extra security for transfer processing introducing an extra confirmation step.\r\n */\r\ncontract TwoPhaseTransfers {\r\n    bool checkProposers;\r\n    bool checkValidators;\r\n    mapping(address => bool) proposers;\r\n    mapping(address => bool) validators;\r\n\r\n    uint nonce = 1;\r\n\r\n    struct TransferProposal {\r\n        ERC20 token;\r\n        address to;\r\n        uint value;\r\n    }\r\n\r\n    mapping(uint => TransferProposal) transferProposals;\r\n\r\n\r\n    event TransferProposed(uint indexed id, address indexed token, address indexed to, uint value);\r\n    event TransferConfirmed(uint indexed id, address indexed token, address indexed to, uint value);\r\n\r\n    modifier onlyProposer() {\r\n        require(!checkProposers || proposers[msg.sender]);\r\n        _;\r\n    }\r\n\r\n    modifier onlyValidator() {\r\n        require(!checkValidators  || validators[msg.sender]);\r\n        _;\r\n    }\r\n\r\n\r\n    constructor(address[] _proposers, address[] _validators) public {\r\n        if (_proposers.length > 0) {\r\n            checkProposers = true;\r\n            for(uint i=0; i<_proposers.length; i++) {\r\n                proposers[_proposers[i]] = true;\r\n            }\r\n        }\r\n\r\n        if (_validators.length > 0) {\r\n            checkValidators = true;\r\n            for(uint j=0; j<_validators.length; j++) {\r\n                validators[_validators[j]] = true;\r\n            }\r\n        }\r\n\r\n    }\r\n\r\n    function proposeTransfer(ERC20 token, address to, uint value) public onlyProposer returns(uint) {\r\n        uint id = nonce++;\r\n        transferProposals[id] = TransferProposal(token, to, value);\r\n        emit TransferProposed(id, token, to, value);\r\n        return id;\r\n    }\r\n\r\n    function confirmTransfer(uint _transferId) public onlyValidator {\r\n        TransferProposal storage proposal = transferProposals[_transferId];\r\n        require(ERC20(proposal.token).transfer(proposal.to, proposal.value));\r\n        emit TransferConfirmed(_transferId, proposal.token, proposal.to, proposal.value);\r\n    }\r\n\r\n\r\n\r\n\r\n\r\n\r\n}\r\n",
  "sourcePath": "C:\\Users\\tobog\\Documents\\GitHub\\charity\\contracts\\alice\\TwoPhaseTransfers.sol",
  "compiler": {
    "name": "solc",
    "version": "0.4.26+commit.4563c3fc.Emscripten.clang"
  },
  "schemaVersion": "3.0.23",
  "updatedAt": "2020-04-20T01:51:34.161Z",
  "devdoc": {
    "methods": {},
    "title": "TwoPhaseTransfers\r"
  },
  "userdoc": {
    "methods": {}
  }
}